{
  "_format": "hh-sol-artifact-1",
  "contractName": "Ticket2",
  "sourceName": "contracts/Ticket2.sol",
  "abi": [
    {
      "inputs": [
        {
          "components": [
            {
              "internalType": "address",
              "name": "erc20TokenAddress",
              "type": "address"
            },
            {
              "internalType": "bool",
              "name": "tokenUriIsEnumerable",
              "type": "bool"
            },
            {
              "internalType": "address",
              "name": "royaltyRecipient",
              "type": "address"
            },
            {
              "internalType": "uint16",
              "name": "royaltyPercentageBps",
              "type": "uint16"
            },
            {
              "internalType": "uint256",
              "name": "maxSupply",
              "type": "uint256"
            },
            {
              "internalType": "uint256",
              "name": "pricePerMint",
              "type": "uint256"
            }
          ],
          "internalType": "struct IRMRKInitData.InitData",
          "name": "data",
          "type": "tuple"
        }
      ],
      "stateMutability": "nonpayable",
      "type": "constructor"
    },
    {
      "inputs": [],
      "name": "ERC721AddressZeroIsNotaValidOwner",
      "type": "error"
    },
    {
      "inputs": [],
      "name": "ERC721ApprovalToCurrentOwner",
      "type": "error"
    },
    {
      "inputs": [],
      "name": "ERC721ApproveCallerIsNotOwnerNorApprovedForAll",
      "type": "error"
    },
    {
      "inputs": [],
      "name": "ERC721ApproveToCaller",
      "type": "error"
    },
    {
      "inputs": [],
      "name": "ERC721InvalidTokenId",
      "type": "error"
    },
    {
      "inputs": [],
      "name": "ERC721MintToTheZeroAddress",
      "type": "error"
    },
    {
      "inputs": [],
      "name": "ERC721NotApprovedOrOwner",
      "type": "error"
    },
    {
      "inputs": [],
      "name": "ERC721TokenAlreadyMinted",
      "type": "error"
    },
    {
      "inputs": [],
      "name": "ERC721TransferFromIncorrectOwner",
      "type": "error"
    },
    {
      "inputs": [],
      "name": "ERC721TransferToNonReceiverImplementer",
      "type": "error"
    },
    {
      "inputs": [],
      "name": "ERC721TransferToTheZeroAddress",
      "type": "error"
    },
    {
      "inputs": [],
      "name": "RMRKChildAlreadyExists",
      "type": "error"
    },
    {
      "inputs": [],
      "name": "RMRKChildIndexOutOfRange",
      "type": "error"
    },
    {
      "inputs": [],
      "name": "RMRKIdZeroForbidden",
      "type": "error"
    },
    {
      "inputs": [],
      "name": "RMRKIsNotContract",
      "type": "error"
    },
    {
      "inputs": [],
      "name": "RMRKLocked",
      "type": "error"
    },
    {
      "inputs": [],
      "name": "RMRKMaxPendingChildrenReached",
      "type": "error"
    },
    {
      "inputs": [
        {
          "internalType": "address",
          "name": "childContract",
          "type": "address"
        },
        {
          "internalType": "uint256",
          "name": "childId",
          "type": "uint256"
        }
      ],
      "name": "RMRKMaxRecursiveBurnsReached",
      "type": "error"
    },
    {
      "inputs": [],
      "name": "RMRKMintOverMax",
      "type": "error"
    },
    {
      "inputs": [],
      "name": "RMRKMintToNonRMRKNestableImplementer",
      "type": "error"
    },
    {
      "inputs": [],
      "name": "RMRKMintUnderpriced",
      "type": "error"
    },
    {
      "inputs": [],
      "name": "RMRKMintZero",
      "type": "error"
    },
    {
      "inputs": [],
      "name": "RMRKNestableTooDeep",
      "type": "error"
    },
    {
      "inputs": [],
      "name": "RMRKNestableTransferToDescendant",
      "type": "error"
    },
    {
      "inputs": [],
      "name": "RMRKNestableTransferToNonRMRKNestableImplementer",
      "type": "error"
    },
    {
      "inputs": [],
      "name": "RMRKNestableTransferToSelf",
      "type": "error"
    },
    {
      "inputs": [],
      "name": "RMRKNewContributorIsZeroAddress",
      "type": "error"
    },
    {
      "inputs": [],
      "name": "RMRKNewOwnerIsZeroAddress",
      "type": "error"
    },
    {
      "inputs": [],
      "name": "RMRKNotApprovedOrDirectOwner",
      "type": "error"
    },
    {
      "inputs": [],
      "name": "RMRKNotOwner",
      "type": "error"
    },
    {
      "inputs": [],
      "name": "RMRKPendingChildIndexOutOfRange",
      "type": "error"
    },
    {
      "inputs": [],
      "name": "RMRKUnexpectedChildId",
      "type": "error"
    },
    {
      "inputs": [],
      "name": "RMRKUnexpectedNumberOfChildren",
      "type": "error"
    },
    {
      "anonymous": false,
      "inputs": [
        {
          "indexed": true,
          "internalType": "uint256",
          "name": "tokenId",
          "type": "uint256"
        }
      ],
      "name": "AllChildrenRejected",
      "type": "event"
    },
    {
      "anonymous": false,
      "inputs": [
        {
          "indexed": true,
          "internalType": "address",
          "name": "owner",
          "type": "address"
        },
        {
          "indexed": true,
          "internalType": "address",
          "name": "approved",
          "type": "address"
        },
        {
          "indexed": true,
          "internalType": "uint256",
          "name": "tokenId",
          "type": "uint256"
        }
      ],
      "name": "Approval",
      "type": "event"
    },
    {
      "anonymous": false,
      "inputs": [
        {
          "indexed": true,
          "internalType": "address",
          "name": "owner",
          "type": "address"
        },
        {
          "indexed": true,
          "internalType": "address",
          "name": "operator",
          "type": "address"
        },
        {
          "indexed": false,
          "internalType": "bool",
          "name": "approved",
          "type": "bool"
        }
      ],
      "name": "ApprovalForAll",
      "type": "event"
    },
    {
      "anonymous": false,
      "inputs": [
        {
          "indexed": true,
          "internalType": "uint256",
          "name": "tokenId",
          "type": "uint256"
        },
        {
          "indexed": false,
          "internalType": "uint256",
          "name": "childIndex",
          "type": "uint256"
        },
        {
          "indexed": true,
          "internalType": "address",
          "name": "childAddress",
          "type": "address"
        },
        {
          "indexed": true,
          "internalType": "uint256",
          "name": "childId",
          "type": "uint256"
        }
      ],
      "name": "ChildAccepted",
      "type": "event"
    },
    {
      "anonymous": false,
      "inputs": [
        {
          "indexed": true,
          "internalType": "uint256",
          "name": "tokenId",
          "type": "uint256"
        },
        {
          "indexed": false,
          "internalType": "uint256",
          "name": "childIndex",
          "type": "uint256"
        },
        {
          "indexed": true,
          "internalType": "address",
          "name": "childAddress",
          "type": "address"
        },
        {
          "indexed": true,
          "internalType": "uint256",
          "name": "childId",
          "type": "uint256"
        }
      ],
      "name": "ChildProposed",
      "type": "event"
    },
    {
      "anonymous": false,
      "inputs": [
        {
          "indexed": true,
          "internalType": "uint256",
          "name": "tokenId",
          "type": "uint256"
        },
        {
          "indexed": false,
          "internalType": "uint256",
          "name": "childIndex",
          "type": "uint256"
        },
        {
          "indexed": true,
          "internalType": "address",
          "name": "childAddress",
          "type": "address"
        },
        {
          "indexed": true,
          "internalType": "uint256",
          "name": "childId",
          "type": "uint256"
        },
        {
          "indexed": false,
          "internalType": "bool",
          "name": "fromPending",
          "type": "bool"
        },
        {
          "indexed": false,
          "internalType": "bool",
          "name": "toZero",
          "type": "bool"
        }
      ],
      "name": "ChildTransferred",
      "type": "event"
    },
    {
      "anonymous": false,
      "inputs": [
        {
          "indexed": true,
          "internalType": "address",
          "name": "contributor",
          "type": "address"
        },
        {
          "indexed": false,
          "internalType": "bool",
          "name": "isContributor",
          "type": "bool"
        }
      ],
      "name": "ContributorUpdate",
      "type": "event"
    },
    {
      "anonymous": false,
      "inputs": [
        {
          "indexed": true,
          "internalType": "address",
          "name": "from",
          "type": "address"
        },
        {
          "indexed": true,
          "internalType": "address",
          "name": "to",
          "type": "address"
        },
        {
          "indexed": false,
          "internalType": "uint256",
          "name": "fromTokenId",
          "type": "uint256"
        },
        {
          "indexed": false,
          "internalType": "uint256",
          "name": "toTokenId",
          "type": "uint256"
        },
        {
          "indexed": true,
          "internalType": "uint256",
          "name": "tokenId",
          "type": "uint256"
        }
      ],
      "name": "NestTransfer",
      "type": "event"
    },
    {
      "anonymous": false,
      "inputs": [
        {
          "indexed": true,
          "internalType": "address",
          "name": "previousOwner",
          "type": "address"
        },
        {
          "indexed": true,
          "internalType": "address",
          "name": "newOwner",
          "type": "address"
        }
      ],
      "name": "OwnershipTransferred",
      "type": "event"
    },
    {
      "anonymous": false,
      "inputs": [
        {
          "indexed": true,
          "internalType": "address",
          "name": "from",
          "type": "address"
        },
        {
          "indexed": true,
          "internalType": "address",
          "name": "to",
          "type": "address"
        },
        {
          "indexed": true,
          "internalType": "uint256",
          "name": "tokenId",
          "type": "uint256"
        }
      ],
      "name": "Transfer",
      "type": "event"
    },
    {
      "inputs": [],
      "name": "VERSION",
      "outputs": [
        {
          "internalType": "string",
          "name": "",
          "type": "string"
        }
      ],
      "stateMutability": "view",
      "type": "function"
    },
    {
      "inputs": [
        {
          "internalType": "uint256",
          "name": "parentId",
          "type": "uint256"
        },
        {
          "internalType": "uint256",
          "name": "childIndex",
          "type": "uint256"
        },
        {
          "internalType": "address",
          "name": "childAddress",
          "type": "address"
        },
        {
          "internalType": "uint256",
          "name": "childId",
          "type": "uint256"
        }
      ],
      "name": "acceptChild",
      "outputs": [],
      "stateMutability": "nonpayable",
      "type": "function"
    },
    {
      "inputs": [
        {
          "internalType": "uint256",
          "name": "parentId",
          "type": "uint256"
        },
        {
          "internalType": "uint256",
          "name": "childId",
          "type": "uint256"
        },
        {
          "internalType": "bytes",
          "name": "data",
          "type": "bytes"
        }
      ],
      "name": "addChild",
      "outputs": [],
      "stateMutability": "nonpayable",
      "type": "function"
    },
    {
      "inputs": [
        {
          "internalType": "address",
          "name": "to",
          "type": "address"
        },
        {
          "internalType": "uint256",
          "name": "tokenId",
          "type": "uint256"
        }
      ],
      "name": "approve",
      "outputs": [],
      "stateMutability": "nonpayable",
      "type": "function"
    },
    {
      "inputs": [
        {
          "internalType": "address",
          "name": "owner",
          "type": "address"
        }
      ],
      "name": "balanceOf",
      "outputs": [
        {
          "internalType": "uint256",
          "name": "",
          "type": "uint256"
        }
      ],
      "stateMutability": "view",
      "type": "function"
    },
    {
      "inputs": [
        {
          "internalType": "uint256",
          "name": "tokenId",
          "type": "uint256"
        }
      ],
      "name": "burn",
      "outputs": [],
      "stateMutability": "nonpayable",
      "type": "function"
    },
    {
      "inputs": [
        {
          "internalType": "uint256",
          "name": "tokenId",
          "type": "uint256"
        },
        {
          "internalType": "uint256",
          "name": "maxChildrenBurns",
          "type": "uint256"
        }
      ],
      "name": "burn",
      "outputs": [
        {
          "internalType": "uint256",
          "name": "",
          "type": "uint256"
        }
      ],
      "stateMutability": "nonpayable",
      "type": "function"
    },
    {
      "inputs": [
        {
          "internalType": "address",
          "name": "childAddress",
          "type": "address"
        },
        {
          "internalType": "uint256",
          "name": "childId",
          "type": "uint256"
        }
      ],
      "name": "childIsInActive",
      "outputs": [
        {
          "internalType": "bool",
          "name": "",
          "type": "bool"
        }
      ],
      "stateMutability": "view",
      "type": "function"
    },
    {
      "inputs": [
        {
          "internalType": "uint256",
          "name": "parentId",
          "type": "uint256"
        },
        {
          "internalType": "uint256",
          "name": "index",
          "type": "uint256"
        }
      ],
      "name": "childOf",
      "outputs": [
        {
          "components": [
            {
              "internalType": "uint256",
              "name": "tokenId",
              "type": "uint256"
            },
            {
              "internalType": "address",
              "name": "contractAddress",
              "type": "address"
            }
          ],
          "internalType": "struct IRMRKNestable.Child",
          "name": "",
          "type": "tuple"
        }
      ],
      "stateMutability": "view",
      "type": "function"
    },
    {
      "inputs": [
        {
          "internalType": "uint256",
          "name": "parentId",
          "type": "uint256"
        }
      ],
      "name": "childrenOf",
      "outputs": [
        {
          "components": [
            {
              "internalType": "uint256",
              "name": "tokenId",
              "type": "uint256"
            },
            {
              "internalType": "address",
              "name": "contractAddress",
              "type": "address"
            }
          ],
          "internalType": "struct IRMRKNestable.Child[]",
          "name": "",
          "type": "tuple[]"
        }
      ],
      "stateMutability": "view",
      "type": "function"
    },
    {
      "inputs": [],
      "name": "collectionMetadata",
      "outputs": [
        {
          "internalType": "string",
          "name": "",
          "type": "string"
        }
      ],
      "stateMutability": "view",
      "type": "function"
    },
    {
      "inputs": [],
      "name": "contractURI",
      "outputs": [
        {
          "internalType": "string",
          "name": "",
          "type": "string"
        }
      ],
      "stateMutability": "view",
      "type": "function"
    },
    {
      "inputs": [
        {
          "internalType": "uint256",
          "name": "tokenId",
          "type": "uint256"
        }
      ],
      "name": "directOwnerOf",
      "outputs": [
        {
          "internalType": "address",
          "name": "",
          "type": "address"
        },
        {
          "internalType": "uint256",
          "name": "",
          "type": "uint256"
        },
        {
          "internalType": "bool",
          "name": "",
          "type": "bool"
        }
      ],
      "stateMutability": "view",
      "type": "function"
    },
    {
      "inputs": [
        {
          "internalType": "uint256",
          "name": "tokenId",
          "type": "uint256"
        }
      ],
      "name": "getApproved",
      "outputs": [
        {
          "internalType": "address",
          "name": "",
          "type": "address"
        }
      ],
      "stateMutability": "view",
      "type": "function"
    },
    {
      "inputs": [],
      "name": "getLock",
      "outputs": [
        {
          "internalType": "bool",
          "name": "",
          "type": "bool"
        }
      ],
      "stateMutability": "view",
      "type": "function"
    },
    {
      "inputs": [],
      "name": "getRoyaltyPercentage",
      "outputs": [
        {
          "internalType": "uint256",
          "name": "",
          "type": "uint256"
        }
      ],
      "stateMutability": "view",
      "type": "function"
    },
    {
      "inputs": [],
      "name": "getRoyaltyRecipient",
      "outputs": [
        {
          "internalType": "address",
          "name": "",
          "type": "address"
        }
      ],
      "stateMutability": "view",
      "type": "function"
    },
    {
      "inputs": [
        {
          "internalType": "address",
          "name": "owner",
          "type": "address"
        },
        {
          "internalType": "address",
          "name": "operator",
          "type": "address"
        }
      ],
      "name": "isApprovedForAll",
      "outputs": [
        {
          "internalType": "bool",
          "name": "",
          "type": "bool"
        }
      ],
      "stateMutability": "view",
      "type": "function"
    },
    {
      "inputs": [
        {
          "internalType": "address",
          "name": "contributor",
          "type": "address"
        }
      ],
      "name": "isContributor",
      "outputs": [
        {
          "internalType": "bool",
          "name": "",
          "type": "bool"
        }
      ],
      "stateMutability": "view",
      "type": "function"
    },
    {
      "inputs": [
        {
          "internalType": "address",
          "name": "contributor",
          "type": "address"
        },
        {
          "internalType": "bool",
          "name": "grantRole",
          "type": "bool"
        }
      ],
      "name": "manageContributor",
      "outputs": [],
      "stateMutability": "nonpayable",
      "type": "function"
    },
    {
      "inputs": [],
      "name": "maxSupply",
      "outputs": [
        {
          "internalType": "uint256",
          "name": "",
          "type": "uint256"
        }
      ],
      "stateMutability": "view",
      "type": "function"
    },
    {
      "inputs": [
        {
          "internalType": "address",
          "name": "to",
          "type": "address"
        },
        {
          "internalType": "uint256",
          "name": "numToMint",
          "type": "uint256"
        }
      ],
      "name": "mint",
      "outputs": [],
      "stateMutability": "payable",
      "type": "function"
    },
    {
      "inputs": [],
      "name": "name",
      "outputs": [
        {
          "internalType": "string",
          "name": "",
          "type": "string"
        }
      ],
      "stateMutability": "view",
      "type": "function"
    },
    {
      "inputs": [
        {
          "internalType": "address",
          "name": "to",
          "type": "address"
        },
        {
          "internalType": "uint256",
          "name": "numToMint",
          "type": "uint256"
        },
        {
          "internalType": "uint256",
          "name": "destinationId",
          "type": "uint256"
        }
      ],
      "name": "nestMint",
      "outputs": [],
      "stateMutability": "payable",
      "type": "function"
    },
    {
      "inputs": [
        {
          "internalType": "address",
          "name": "from",
          "type": "address"
        },
        {
          "internalType": "address",
          "name": "to",
          "type": "address"
        },
        {
          "internalType": "uint256",
          "name": "tokenId",
          "type": "uint256"
        },
        {
          "internalType": "uint256",
          "name": "destinationId",
          "type": "uint256"
        },
        {
          "internalType": "bytes",
          "name": "data",
          "type": "bytes"
        }
      ],
      "name": "nestTransferFrom",
      "outputs": [],
      "stateMutability": "nonpayable",
      "type": "function"
    },
    {
      "inputs": [],
      "name": "owner",
      "outputs": [
        {
          "internalType": "address",
          "name": "",
          "type": "address"
        }
      ],
      "stateMutability": "view",
      "type": "function"
    },
    {
      "inputs": [
        {
          "internalType": "uint256",
          "name": "tokenId",
          "type": "uint256"
        }
      ],
      "name": "ownerOf",
      "outputs": [
        {
          "internalType": "address",
          "name": "",
          "type": "address"
        }
      ],
      "stateMutability": "view",
      "type": "function"
    },
    {
      "inputs": [
        {
          "internalType": "uint256",
          "name": "parentId",
          "type": "uint256"
        },
        {
          "internalType": "uint256",
          "name": "index",
          "type": "uint256"
        }
      ],
      "name": "pendingChildOf",
      "outputs": [
        {
          "components": [
            {
              "internalType": "uint256",
              "name": "tokenId",
              "type": "uint256"
            },
            {
              "internalType": "address",
              "name": "contractAddress",
              "type": "address"
            }
          ],
          "internalType": "struct IRMRKNestable.Child",
          "name": "",
          "type": "tuple"
        }
      ],
      "stateMutability": "view",
      "type": "function"
    },
    {
      "inputs": [
        {
          "internalType": "uint256",
          "name": "parentId",
          "type": "uint256"
        }
      ],
      "name": "pendingChildrenOf",
      "outputs": [
        {
          "components": [
            {
              "internalType": "uint256",
              "name": "tokenId",
              "type": "uint256"
            },
            {
              "internalType": "address",
              "name": "contractAddress",
              "type": "address"
            }
          ],
          "internalType": "struct IRMRKNestable.Child[]",
          "name": "",
          "type": "tuple[]"
        }
      ],
      "stateMutability": "view",
      "type": "function"
    },
    {
      "inputs": [],
      "name": "pricePerMint",
      "outputs": [
        {
          "internalType": "uint256",
          "name": "",
          "type": "uint256"
        }
      ],
      "stateMutability": "view",
      "type": "function"
    },
    {
      "inputs": [
        {
          "internalType": "uint256",
          "name": "tokenId",
          "type": "uint256"
        },
        {
          "internalType": "uint256",
          "name": "maxRejections",
          "type": "uint256"
        }
      ],
      "name": "rejectAllChildren",
      "outputs": [],
      "stateMutability": "nonpayable",
      "type": "function"
    },
    {
      "inputs": [],
      "name": "renounceOwnership",
      "outputs": [],
      "stateMutability": "nonpayable",
      "type": "function"
    },
    {
      "inputs": [
        {
          "internalType": "uint256",
          "name": "tokenId",
          "type": "uint256"
        },
        {
          "internalType": "uint256",
          "name": "salePrice",
          "type": "uint256"
        }
      ],
      "name": "royaltyInfo",
      "outputs": [
        {
          "internalType": "address",
          "name": "receiver",
          "type": "address"
        },
        {
          "internalType": "uint256",
          "name": "royaltyAmount",
          "type": "uint256"
        }
      ],
      "stateMutability": "view",
      "type": "function"
    },
    {
      "inputs": [
        {
          "internalType": "address",
          "name": "from",
          "type": "address"
        },
        {
          "internalType": "address",
          "name": "to",
          "type": "address"
        },
        {
          "internalType": "uint256",
          "name": "tokenId",
          "type": "uint256"
        }
      ],
      "name": "safeTransferFrom",
      "outputs": [],
      "stateMutability": "nonpayable",
      "type": "function"
    },
    {
      "inputs": [
        {
          "internalType": "address",
          "name": "from",
          "type": "address"
        },
        {
          "internalType": "address",
          "name": "to",
          "type": "address"
        },
        {
          "internalType": "uint256",
          "name": "tokenId",
          "type": "uint256"
        },
        {
          "internalType": "bytes",
          "name": "data",
          "type": "bytes"
        }
      ],
      "name": "safeTransferFrom",
      "outputs": [],
      "stateMutability": "nonpayable",
      "type": "function"
    },
    {
      "inputs": [
        {
          "internalType": "address",
          "name": "operator",
          "type": "address"
        },
        {
          "internalType": "bool",
          "name": "approved",
          "type": "bool"
        }
      ],
      "name": "setApprovalForAll",
      "outputs": [],
      "stateMutability": "nonpayable",
      "type": "function"
    },
    {
      "inputs": [],
      "name": "setLock",
      "outputs": [],
      "stateMutability": "nonpayable",
      "type": "function"
    },
    {
      "inputs": [
        {
          "internalType": "bytes4",
          "name": "interfaceId",
          "type": "bytes4"
        }
      ],
      "name": "supportsInterface",
      "outputs": [
        {
          "internalType": "bool",
          "name": "",
          "type": "bool"
        }
      ],
      "stateMutability": "view",
      "type": "function"
    },
    {
      "inputs": [],
      "name": "symbol",
      "outputs": [
        {
          "internalType": "string",
          "name": "",
          "type": "string"
        }
      ],
      "stateMutability": "view",
      "type": "function"
    },
    {
      "inputs": [
        {
          "internalType": "uint256",
          "name": "tokenId",
          "type": "uint256"
        }
      ],
      "name": "tokenURI",
      "outputs": [
        {
          "internalType": "string",
          "name": "",
          "type": "string"
        }
      ],
      "stateMutability": "view",
      "type": "function"
    },
    {
      "inputs": [],
      "name": "totalSupply",
      "outputs": [
        {
          "internalType": "uint256",
          "name": "",
          "type": "uint256"
        }
      ],
      "stateMutability": "view",
      "type": "function"
    },
    {
      "inputs": [
        {
          "internalType": "uint256",
          "name": "tokenId",
          "type": "uint256"
        },
        {
          "internalType": "address",
          "name": "to",
          "type": "address"
        },
        {
          "internalType": "uint256",
          "name": "destinationId",
          "type": "uint256"
        },
        {
          "internalType": "uint256",
          "name": "childIndex",
          "type": "uint256"
        },
        {
          "internalType": "address",
          "name": "childAddress",
          "type": "address"
        },
        {
          "internalType": "uint256",
          "name": "childId",
          "type": "uint256"
        },
        {
          "internalType": "bool",
          "name": "isPending",
          "type": "bool"
        },
        {
          "internalType": "bytes",
          "name": "data",
          "type": "bytes"
        }
      ],
      "name": "transferChild",
      "outputs": [],
      "stateMutability": "nonpayable",
      "type": "function"
    },
    {
      "inputs": [
        {
          "internalType": "address",
          "name": "from",
          "type": "address"
        },
        {
          "internalType": "address",
          "name": "to",
          "type": "address"
        },
        {
          "internalType": "uint256",
          "name": "tokenId",
          "type": "uint256"
        }
      ],
      "name": "transferFrom",
      "outputs": [],
      "stateMutability": "nonpayable",
      "type": "function"
    },
    {
      "inputs": [
        {
          "internalType": "address",
          "name": "newOwner",
          "type": "address"
        }
      ],
      "name": "transferOwnership",
      "outputs": [],
      "stateMutability": "nonpayable",
      "type": "function"
    },
    {
      "inputs": [
        {
          "internalType": "address",
          "name": "newRoyaltyRecipient",
          "type": "address"
        }
      ],
      "name": "updateRoyaltyRecipient",
      "outputs": [],
      "stateMutability": "nonpayable",
      "type": "function"
    },
    {
      "inputs": [
        {
          "internalType": "address",
          "name": "to",
          "type": "address"
        },
        {
          "internalType": "uint256",
          "name": "amount",
          "type": "uint256"
        }
      ],
      "name": "withdrawRaised",
      "outputs": [],
      "stateMutability": "nonpayable",
      "type": "function"
    }
  ],
  "bytecode": "0x60a06040523480156200001157600080fd5b506040516200645b3803806200645b83398181016040528101906200003791906200056c565b6040518060400160405280600c81526020017f5469636b65744576656e743200000000000000000000000000000000000000008152506040518060400160405280600381526020017f544532000000000000000000000000000000000000000000000000000000000081525060405180610100016040528060db81526020016200631d60db91396040518060a0016040528060638152602001620063f86063913984848481818585602001518660400151876060015161ffff168a89608001518a60a001516200011c62000110620001a160201b60201c565b620001a960201b60201c565b81600481905550806080818152505050506200013e816200026d60201b60201c565b5062000150826200028260201b60201c565b8060078190555050506200016b8282620002c660201b60201c565b505081600a90816200017e9190620007df565b5080600b9081620001909190620007df565b5050505050505050505050620008c6565b600033905090565b60008060009054906101000a900473ffffffffffffffffffffffffffffffffffffffff169050816000806101000a81548173ffffffffffffffffffffffffffffffffffffffff021916908373ffffffffffffffffffffffffffffffffffffffff1602179055508173ffffffffffffffffffffffffffffffffffffffff168173ffffffffffffffffffffffffffffffffffffffff167f8be0079c531659141344cd1fd0a4f28419497f9722a3daafe3b4186f6b6457e060405160405180910390a35050565b80600590816200027e9190620007df565b5050565b80600660006101000a81548173ffffffffffffffffffffffffffffffffffffffff021916908373ffffffffffffffffffffffffffffffffffffffff16021790555050565b8160089081620002d79190620007df565b5080620002e6576000620002e9565b60015b60ff166009819055505050565b6000604051905090565b600080fd5b600080fd5b6000601f19601f8301169050919050565b7f4e487b7100000000000000000000000000000000000000000000000000000000600052604160045260246000fd5b62000355826200030a565b810181811067ffffffffffffffff821117156200037757620003766200031b565b5b80604052505050565b60006200038c620002f6565b90506200039a82826200034a565b919050565b600073ffffffffffffffffffffffffffffffffffffffff82169050919050565b6000620003cc826200039f565b9050919050565b620003de81620003bf565b8114620003ea57600080fd5b50565b600081519050620003fe81620003d3565b92915050565b60008115159050919050565b6200041b8162000404565b81146200042757600080fd5b50565b6000815190506200043b8162000410565b92915050565b600061ffff82169050919050565b6200045a8162000441565b81146200046657600080fd5b50565b6000815190506200047a816200044f565b92915050565b6000819050919050565b620004958162000480565b8114620004a157600080fd5b50565b600081519050620004b5816200048a565b92915050565b600060c08284031215620004d457620004d362000305565b5b620004e060c062000380565b90506000620004f284828501620003ed565b600083015250602062000508848285016200042a565b60208301525060406200051e84828501620003ed565b6040830152506060620005348482850162000469565b60608301525060806200054a84828501620004a4565b60808301525060a06200056084828501620004a4565b60a08301525092915050565b600060c0828403121562000585576200058462000300565b5b60006200059584828501620004bb565b91505092915050565b600081519050919050565b7f4e487b7100000000000000000000000000000000000000000000000000000000600052602260045260246000fd5b60006002820490506001821680620005f157607f821691505b602082108103620006075762000606620005a9565b5b50919050565b60008190508160005260206000209050919050565b60006020601f8301049050919050565b600082821b905092915050565b600060088302620006717fffffffffffffffffffffffffffffffffffffffffffffffffffffffffffffffff8262000632565b6200067d868362000632565b95508019841693508086168417925050509392505050565b6000819050919050565b6000620006c0620006ba620006b48462000480565b62000695565b62000480565b9050919050565b6000819050919050565b620006dc836200069f565b620006f4620006eb82620006c7565b8484546200063f565b825550505050565b600090565b6200070b620006fc565b62000718818484620006d1565b505050565b5b8181101562000740576200073460008262000701565b6001810190506200071e565b5050565b601f8211156200078f5762000759816200060d565b620007648462000622565b8101602085101562000774578190505b6200078c620007838562000622565b8301826200071d565b50505b505050565b600082821c905092915050565b6000620007b46000198460080262000794565b1980831691505092915050565b6000620007cf8383620007a1565b9150826002028217905092915050565b620007ea826200059e565b67ffffffffffffffff8111156200080657620008056200031b565b5b620008128254620005d8565b6200081f82828562000744565b600060209050601f83116001811462000857576000841562000842578287015190505b6200084e8582620007c1565b865550620008be565b601f19841662000867866200060d565b60005b8281101562000891578489015182556001820191506020850194506020810190506200086a565b86831015620008b15784890151620008ad601f891682620007a1565b8355505b6001600288020188555050505b505050505050565b608051615a34620008e960003960008181611cad0152612a980152615a346000f3fe60806040526004361061027d5760003560e01c8063715018a61161014f578063b390c0ab116100c1578063e8a3d4851161007a578063e8a3d485146109c5578063e97ceaa8146109f0578063e985e9c514610a19578063f2fde38b14610a56578063fb25fb7a14610a7f578063ffa1ad7414610abe5761027d565b8063b390c0ab146108a3578063b88d4fde146108e0578063c5610a2914610909578063c87b56dd14610934578063d5abeb0114610971578063defa80c31461099c5761027d565b80638da5cb5b116101135780638da5cb5b1461079357806395d89b41146107be57806395edc18c146107e95780639796133614610814578063a22cb4651461083d578063a898e364146108665761027d565b8063715018a6146106e657806379e8ca9e146106fd5780637aba6f37146107265780637e5852d91461073d57806389ed2edf146107685761027d565b806333ed2845116101f357806359c8b7dd116101ac57806359c8b7dd146105bf5780636352211e146105ea578063635490cc1461062757806364e8f13d146106505780636f19951c1461066c57806370a08231146106a95761027d565b806333ed2845146104ae57806340c10f19146104d75780634182e4a3146104f357806342842e0e1461053057806342966c681461055957806344ec9344146105825761027d565b80630fc499f5116102455780630fc499f51461037957806318160ddd146103a25780631d0d35f5146103cd57806323b872dd1461040a5780632a55205a146104335780632f32f937146104715761027d565b806301ffc9a714610282578063064c0a3a146102bf57806306fdde03146102e8578063081812fc14610313578063095ea7b314610350575b600080fd5b34801561028e57600080fd5b506102a960048036038101906102a491906147d6565b610ae9565b6040516102b6919061481e565b60405180910390f35b3480156102cb57600080fd5b506102e660048036038101906102e19190614a13565b610c8b565b005b3480156102f457600080fd5b506102fd610caa565b60405161030a9190614b29565b60405180910390f35b34801561031f57600080fd5b5061033a60048036038101906103359190614b4b565b610d3c565b6040516103479190614b87565b60405180910390f35b34801561035c57600080fd5b5061037760048036038101906103729190614ba2565b610dc7565b005b34801561038557600080fd5b506103a0600480360381019061039b9190614be2565b610ed0565b005b3480156103ae57600080fd5b506103b7610ee4565b6040516103c49190614c1e565b60405180910390f35b3480156103d957600080fd5b506103f460048036038101906103ef9190614be2565b610eee565b604051610401919061481e565b60405180910390f35b34801561041657600080fd5b50610431600480360381019061042c9190614c39565b610f39565b005b34801561043f57600080fd5b5061045a60048036038101906104559190614c8c565b610f64565b604051610468929190614ccc565b60405180910390f35b34801561047d57600080fd5b5061049860048036038101906104939190614c8c565b610fb0565b6040516104a59190614d42565b60405180910390f35b3480156104ba57600080fd5b506104d560048036038101906104d09190614ba2565b6110a6565b005b6104f160048036038101906104ec9190614ba2565b6110bc565b005b3480156104ff57600080fd5b5061051a60048036038101906105159190614ba2565b61110e565b604051610527919061481e565b60405180910390f35b34801561053c57600080fd5b5061055760048036038101906105529190614c39565b61116c565b005b34801561056557600080fd5b50610580600480360381019061057b9190614b4b565b61118c565b005b34801561058e57600080fd5b506105a960048036038101906105a49190614b4b565b61119b565b6040516105b69190614e3b565b60405180910390f35b3480156105cb57600080fd5b506105d4611273565b6040516105e19190614c1e565b60405180910390f35b3480156105f657600080fd5b50610611600480360381019061060c9190614b4b565b61127d565b60405161061e9190614b87565b60405180910390f35b34801561063357600080fd5b5061064e60048036038101906106499190614e5d565b611320565b005b61066a60048036038101906106659190614ecc565b611507565b005b34801561067857600080fd5b50610693600480360381019061068e9190614b4b565b61155b565b6040516106a09190614e3b565b60405180910390f35b3480156106b557600080fd5b506106d060048036038101906106cb9190614be2565b611633565b6040516106dd9190614c1e565b60405180910390f35b3480156106f257600080fd5b506106fb6116e1565b005b34801561070957600080fd5b50610724600480360381019061071f9190614f4b565b6116f5565b005b34801561073257600080fd5b5061073b611848565b005b34801561074957600080fd5b50610752611863565b60405161075f919061481e565b60405180910390f35b34801561077457600080fd5b5061077d611870565b60405161078a9190614b29565b60405180910390f35b34801561079f57600080fd5b506107a8611902565b6040516107b59190614b87565b60405180910390f35b3480156107ca57600080fd5b506107d361192b565b6040516107e09190614b29565b60405180910390f35b3480156107f557600080fd5b506107fe6119bd565b60405161080b9190614b87565b60405180910390f35b34801561082057600080fd5b5061083b60048036038101906108369190614c8c565b6119e7565b005b34801561084957600080fd5b50610864600480360381019061085f9190614f4b565b611a00565b005b34801561087257600080fd5b5061088d60048036038101906108889190614c8c565b611b77565b60405161089a9190614d42565b60405180910390f35b3480156108af57600080fd5b506108ca60048036038101906108c59190614c8c565b611c6d565b6040516108d79190614c1e565b60405180910390f35b3480156108ec57600080fd5b5061090760048036038101906109029190614f8b565b611c8c565b005b34801561091557600080fd5b5061091e611ca9565b60405161092b9190614c1e565b60405180910390f35b34801561094057600080fd5b5061095b60048036038101906109569190614b4b565b611cd1565b6040516109689190614b29565b60405180910390f35b34801561097d57600080fd5b50610986611da0565b6040516109939190614c1e565b60405180910390f35b3480156109a857600080fd5b506109c360048036038101906109be919061500e565b611daa565b005b3480156109d157600080fd5b506109da611dcf565b6040516109e79190614b29565b60405180910390f35b3480156109fc57600080fd5b50610a176004803603810190610a1291906150e0565b611e4a565b005b348015610a2557600080fd5b50610a406004803603810190610a3b9190615147565b611e67565b604051610a4d919061481e565b60405180910390f35b348015610a6257600080fd5b50610a7d6004803603810190610a789190614be2565b611efb565b005b348015610a8b57600080fd5b50610aa66004803603810190610aa19190614b4b565b611f75565b604051610ab593929190615187565b60405180910390f35b348015610aca57600080fd5b50610ad361209d565b604051610ae09190614b29565b60405180910390f35b60007f01ffc9a7000000000000000000000000000000000000000000000000000000007bffffffffffffffffffffffffffffffffffffffffffffffffffffffff1916827bffffffffffffffffffffffffffffffffffffffffffffffffffffffff19161480610bb457507f80ac58cd000000000000000000000000000000000000000000000000000000007bffffffffffffffffffffffffffffffffffffffffffffffffffffffff1916827bffffffffffffffffffffffffffffffffffffffffffffffffffffffff1916145b80610c1c57507f5b5e139f000000000000000000000000000000000000000000000000000000007bffffffffffffffffffffffffffffffffffffffffffffffffffffffff1916827bffffffffffffffffffffffffffffffffffffffffffffffffffffffff1916145b80610c8457507f42b0e56f000000000000000000000000000000000000000000000000000000007bffffffffffffffffffffffffffffffffffffffffffffffffffffffff1916827bffffffffffffffffffffffffffffffffffffffffffffffffffffffff1916145b9050919050565b82610c95816120d6565b610ca28686868686612120565b505050505050565b6060600a8054610cb9906151ed565b80601f0160208091040260200160405190810160405280929190818152602001828054610ce5906151ed565b8015610d325780601f10610d0757610100808354040283529160200191610d32565b820191906000526020600020905b815481529060010190602001808311610d1557829003601f168201915b5050505050905090565b6000610d4782612488565b600d60008381526020019081526020016000206000610d658461127d565b73ffffffffffffffffffffffffffffffffffffffff1673ffffffffffffffffffffffffffffffffffffffff16815260200190815260200160002060009054906101000a900473ffffffffffffffffffffffffffffffffffffffff169050919050565b6000610dd28261127d565b90508073ffffffffffffffffffffffffffffffffffffffff168373ffffffffffffffffffffffffffffffffffffffff1603610e39576040517f0591db6d00000000000000000000000000000000000000000000000000000000815260040160405180910390fd5b8073ffffffffffffffffffffffffffffffffffffffff16610e586124ca565b73ffffffffffffffffffffffffffffffffffffffff1614158015610e8a5750610e8881610e836124ca565b611e67565b155b15610ec1576040517f982462b200000000000000000000000000000000000000000000000000000000815260040160405180910390fd5b610ecb83836124d2565b505050565b610ed86125ce565b610ee181612643565b50565b6000600354905090565b600060018060008473ffffffffffffffffffffffffffffffffffffffff1673ffffffffffffffffffffffffffffffffffffffff16815260200190815260200160002054149050919050565b80610f43816120d6565b610f5e84848460405180602001604052806000815250612687565b50505050565b600080600660009054906101000a900473ffffffffffffffffffffffffffffffffffffffff16915061271060075484610f9d919061524d565b610fa791906152be565b90509250929050565b610fb86146d0565b81610fc28461155b565b5111610ffa576040517fca7cc84a00000000000000000000000000000000000000000000000000000000815260040160405180910390fd5b6000601060008581526020019081526020016000208381548110611021576110206152ef565b5b9060005260206000209060020201604051806040016040529081600082015481526020016001820160009054906101000a900473ffffffffffffffffffffffffffffffffffffffff1673ffffffffffffffffffffffffffffffffffffffff1673ffffffffffffffffffffffffffffffffffffffff168152505090508091505092915050565b6110ae6125ce565b6110b8828261291f565b5050565b6110c46129d0565b6000806110d083612a0e565b9150915060008290505b81811015611107576110fc858260405180602001604052806000815250612b11565b8060010190506110da565b5050505050565b600080601260008573ffffffffffffffffffffffffffffffffffffffff1673ffffffffffffffffffffffffffffffffffffffff1681526020019081526020016000206000848152602001908152602001600020541415905092915050565b61118783838360405180602001604052806000815250611c8c565b505050565b611197816000611c6d565b5050565b6060600060116000848152602001908152602001600020805480602002602001604051908101604052809291908181526020016000905b828210156112645783829060005260206000209060020201604051806040016040529081600082015481526020016001820160009054906101000a900473ffffffffffffffffffffffffffffffffffffffff1673ffffffffffffffffffffffffffffffffffffffff1673ffffffffffffffffffffffffffffffffffffffff1681525050815260200190600101906111d2565b50505050905080915050919050565b6000600754905090565b60008060008061128c85611f75565b9250925092508015611315578273ffffffffffffffffffffffffffffffffffffffff16636352211e836040518263ffffffff1660e01b81526004016112d19190614c1e565b602060405180830381865afa1580156112ee573d6000803e3d6000fd5b505050506040513d601f19601f820116820180604052508101906113129190615333565b92505b829350505050919050565b61132983612488565b60006113336124ca565b90506113548173ffffffffffffffffffffffffffffffffffffffff16612b64565b61138a576040517fb9d3114700000000000000000000000000000000000000000000000000000000815260040160405180910390fd5b600060405180604001604052808581526020018373ffffffffffffffffffffffffffffffffffffffff1681525090506113c585838686612b87565b60006113d08661119b565b519050608081101561147157601160008781526020019081526020016000208290806001815401808255809150506001900390600052602060002090600202016000909190919091506000820151816000015560208201518160010160006101000a81548173ffffffffffffffffffffffffffffffffffffffff021916908373ffffffffffffffffffffffffffffffffffffffff16021790555050506114a3565b6040517fa53c8c0500000000000000000000000000000000000000000000000000000000815260040160405180910390fd5b848373ffffffffffffffffffffffffffffffffffffffff16877fe65085e689b77b126ba0bac3b079aa8288f19f4d5445af11c76003f8ab3075dd846040516114eb9190614c1e565b60405180910390a46114ff86848787612b8d565b505050505050565b61150f6129d0565b60008061151b84612a0e565b9150915060008290505b818110156115535761154886828660405180602001604052806000815250612b93565b806001019050611525565b505050505050565b6060600060106000848152602001908152602001600020805480602002602001604051908101604052809291908181526020016000905b828210156116245783829060005260206000209060020201604051806040016040529081600082015481526020016001820160009054906101000a900473ffffffffffffffffffffffffffffffffffffffff1673ffffffffffffffffffffffffffffffffffffffff1673ffffffffffffffffffffffffffffffffffffffff168152505081526020019060010190611592565b50505050905080915050919050565b60008073ffffffffffffffffffffffffffffffffffffffff168273ffffffffffffffffffffffffffffffffffffffff160361169a576040517f7772286600000000000000000000000000000000000000000000000000000000815260040160405180910390fd5b600c60008373ffffffffffffffffffffffffffffffffffffffff1673ffffffffffffffffffffffffffffffffffffffff168152602001908152602001600020549050919050565b6116e96125ce565b6116f36000612cda565b565b6116fd6125ce565b600073ffffffffffffffffffffffffffffffffffffffff168273ffffffffffffffffffffffffffffffffffffffff1603611763576040517fb5c0938000000000000000000000000000000000000000000000000000000000815260040160405180910390fd5b806117b1576000600160008473ffffffffffffffffffffffffffffffffffffffff1673ffffffffffffffffffffffffffffffffffffffff1681526020019081526020016000208190556117f5565b60018060008473ffffffffffffffffffffffffffffffffffffffff1673ffffffffffffffffffffffffffffffffffffffff1681526020019081526020016000208190555b508173ffffffffffffffffffffffffffffffffffffffff167f4b5657e84cf8a17ac5587bbeb3cc2bab9826c4c67b8bad81b4849de49d37aac28260405161183c919061481e565b60405180910390a25050565b6118506125ce565b611858612d9e565b600354600481905550565b6000600160025414905090565b60606005805461187f906151ed565b80601f01602080910402602001604051908101604052809291908181526020018280546118ab906151ed565b80156118f85780601f106118cd576101008083540402835291602001916118f8565b820191906000526020600020905b8154815290600101906020018083116118db57829003601f168201915b5050505050905090565b60008060009054906101000a900473ffffffffffffffffffffffffffffffffffffffff16905090565b6060600b805461193a906151ed565b80601f0160208091040260200160405190810160405280929190818152602001828054611966906151ed565b80156119b35780601f10611988576101008083540402835291602001916119b3565b820191906000526020600020905b81548152906001019060200180831161199657829003601f168201915b5050505050905090565b6000600660009054906101000a900473ffffffffffffffffffffffffffffffffffffffff16905090565b816119f181612db0565b6119fb8383612dfa565b505050565b8173ffffffffffffffffffffffffffffffffffffffff16611a1f6124ca565b73ffffffffffffffffffffffffffffffffffffffff1603611a6c576040517f2dee66e400000000000000000000000000000000000000000000000000000000815260040160405180910390fd5b80600e6000611a796124ca565b73ffffffffffffffffffffffffffffffffffffffff1673ffffffffffffffffffffffffffffffffffffffff16815260200190815260200160002060008473ffffffffffffffffffffffffffffffffffffffff1673ffffffffffffffffffffffffffffffffffffffff16815260200190815260200160002060006101000a81548160ff0219169083151502179055508173ffffffffffffffffffffffffffffffffffffffff16611b266124ca565b73ffffffffffffffffffffffffffffffffffffffff167f17307eab39ab6107e8899845ad3d59bd9653f200f220920489ca2b5937696c3183604051611b6b919061481e565b60405180910390a35050565b611b7f6146d0565b81611b898461119b565b5111611bc1576040517fda22687f00000000000000000000000000000000000000000000000000000000815260040160405180910390fd5b6000601160008581526020019081526020016000208381548110611be857611be76152ef565b5b9060005260206000209060020201604051806040016040529081600082015481526020016001820160009054906101000a900473ffffffffffffffffffffffffffffffffffffffff1673ffffffffffffffffffffffffffffffffffffffff1673ffffffffffffffffffffffffffffffffffffffff168152505090508091505092915050565b600082611c79816120d6565b611c838484612eac565b91505092915050565b81611c96816120d6565b611ca285858585613390565b5050505050565b60007f0000000000000000000000000000000000000000000000000000000000000000905090565b6060600060095414611d0d576008611ce8836133e4565b604051602001611cf9929190615434565b604051602081830303815290604052611d99565b60088054611d1a906151ed565b80601f0160208091040260200160405190810160405280929190818152602001828054611d46906151ed565b8015611d935780601f10611d6857610100808354040283529160200191611d93565b820191906000526020600020905b815481529060010190602001808311611d7657829003601f168201915b50505050505b9050919050565b6000600454905090565b87611db481612db0565b611dc489898989898989896134b2565b505050505050505050565b60603073ffffffffffffffffffffffffffffffffffffffff166389ed2edf6040518163ffffffff1660e01b8152600401600060405180830381865afa158015611e1c573d6000803e3d6000fd5b505050506040513d6000823e3d601f19601f82011682018060405250810190611e4591906154f9565b905090565b83611e5481612db0565b611e608585858561375a565b5050505050565b6000600e60008473ffffffffffffffffffffffffffffffffffffffff1673ffffffffffffffffffffffffffffffffffffffff16815260200190815260200160002060008373ffffffffffffffffffffffffffffffffffffffff1673ffffffffffffffffffffffffffffffffffffffff16815260200190815260200160002060009054906101000a900460ff16905092915050565b611f036125ce565b600073ffffffffffffffffffffffffffffffffffffffff168173ffffffffffffffffffffffffffffffffffffffff1603611f69576040517f4ece6ecf00000000000000000000000000000000000000000000000000000000815260040160405180910390fd5b611f7281612cda565b50565b600080600080600f6000868152602001908152602001600020604051806060016040529081600082015481526020016001820160009054906101000a900473ffffffffffffffffffffffffffffffffffffffff1673ffffffffffffffffffffffffffffffffffffffff1673ffffffffffffffffffffffffffffffffffffffff1681526020016001820160149054906101000a900460ff1615151515815250509050600073ffffffffffffffffffffffffffffffffffffffff16816020015173ffffffffffffffffffffffffffffffffffffffff1603612080576040517f89ba7e1000000000000000000000000000000000000000000000000000000000815260040160405180910390fd5b806020015181600001518260400151935093509350509193909250565b6040518060400160405280600681526020017f302e32362e30000000000000000000000000000000000000000000000000000081525081565b6120e76120e16124ca565b8261396e565b61211d576040517f8be7930600000000000000000000000000000000000000000000000000000000815260040160405180910390fd5b50565b60008061212c85611f75565b50915091508673ffffffffffffffffffffffffffffffffffffffff168273ffffffffffffffffffffffffffffffffffffffff1614612196576040517fe146af6f00000000000000000000000000000000000000000000000000000000815260040160405180910390fd5b600073ffffffffffffffffffffffffffffffffffffffff168673ffffffffffffffffffffffffffffffffffffffff16036121fc576040517fe3d91bfc00000000000000000000000000000000000000000000000000000000815260040160405180910390fd5b3073ffffffffffffffffffffffffffffffffffffffff168673ffffffffffffffffffffffffffffffffffffffff1614801561223657508385145b1561226d576040517f3d76b10700000000000000000000000000000000000000000000000000000000815260040160405180910390fd5b61228c8673ffffffffffffffffffffffffffffffffffffffff16612b64565b6122c2576040517fb9d3114700000000000000000000000000000000000000000000000000000000815260040160405180910390fd5b8573ffffffffffffffffffffffffffffffffffffffff166301ffc9a77f42b0e56f000000000000000000000000000000000000000000000000000000006040518263ffffffff1660e01b815260040161231b9190615551565b602060405180830381865afa158015612338573d6000803e3d6000fd5b505050506040513d601f19601f8201168201806040525081019061235c9190615581565b612392576040517f5e13b1cc00000000000000000000000000000000000000000000000000000000815260040160405180910390fd5b61239d858786613a4a565b6123a8878787613ba6565b6123b6828783878988613bab565b6001600c60008973ffffffffffffffffffffffffffffffffffffffff1673ffffffffffffffffffffffffffffffffffffffff168152602001908152602001600020600082825461240691906155ae565b9250508190555061241a8585886001613bb3565b6001600c60008873ffffffffffffffffffffffffffffffffffffffff1673ffffffffffffffffffffffffffffffffffffffff168152602001908152602001600020600082825461246a91906155e2565b9250508190555061247f828783878988613c87565b50505050505050565b61249181613de0565b6124c7576040517f89ba7e1000000000000000000000000000000000000000000000000000000000815260040160405180910390fd5b50565b600033905090565b60006124dd8261127d565b905082600d600084815260200190815260200160002060008373ffffffffffffffffffffffffffffffffffffffff1673ffffffffffffffffffffffffffffffffffffffff16815260200190815260200160002060006101000a81548173ffffffffffffffffffffffffffffffffffffffff021916908373ffffffffffffffffffffffffffffffffffffffff160217905550818373ffffffffffffffffffffffffffffffffffffffff168273ffffffffffffffffffffffffffffffffffffffff167f8c5be1e5ebec7d5bd14f71427d1e84f3dd0314c0f7b2291e5b200ac8c7c3b92560405160405180910390a4505050565b6125d66124ca565b73ffffffffffffffffffffffffffffffffffffffff166125f4611902565b73ffffffffffffffffffffffffffffffffffffffff1614612641576040517f38c5ab1e00000000000000000000000000000000000000000000000000000000815260040160405180910390fd5b565b80600660006101000a81548173ffffffffffffffffffffffffffffffffffffffff021916908373ffffffffffffffffffffffffffffffffffffffff16021790555050565b60008061269384611f75565b50915091508573ffffffffffffffffffffffffffffffffffffffff168273ffffffffffffffffffffffffffffffffffffffff16146126fd576040517fe146af6f00000000000000000000000000000000000000000000000000000000815260040160405180910390fd5b600073ffffffffffffffffffffffffffffffffffffffff168573ffffffffffffffffffffffffffffffffffffffff1603612763576040517fe3d91bfc00000000000000000000000000000000000000000000000000000000815260040160405180910390fd5b61276e868686613ba6565b61277d82868360008888613bab565b6001600c60008873ffffffffffffffffffffffffffffffffffffffff1673ffffffffffffffffffffffffffffffffffffffff16815260200190815260200160002060008282546127cd91906155ae565b925050819055506127e2846000876000613bb3565b6001600c60008773ffffffffffffffffffffffffffffffffffffffff1673ffffffffffffffffffffffffffffffffffffffff168152602001908152602001600020600082825461283291906155e2565b92505081905550838573ffffffffffffffffffffffffffffffffffffffff168773ffffffffffffffffffffffffffffffffffffffff167fddf252ad1be2c89b69c2b068fc378daa952ba7f163c4a11628f55a4df523b3ef60405160405180910390a4838573ffffffffffffffffffffffffffffffffffffffff168373ffffffffffffffffffffffffffffffffffffffff167f04444026cefd1b05506559cab59d1b865ae3ba4ed2fe5c894f04e522776c552d8460006040516128f592919061565b565b60405180910390a4612908868686613e4f565b61291782868360008888613e54565b505050505050565b60008273ffffffffffffffffffffffffffffffffffffffff1682604051612945906156b5565b60006040518083038185875af1925050503d8060008114612982576040519150601f19603f3d011682016040523d82523d6000602084013e612987565b606091505b50509050806129cb576040517f08c379a00000000000000000000000000000000000000000000000000000000081526004016129c290615716565b60405180910390fd5b505050565b600160025403612a0c576040517fed1fa96f00000000000000000000000000000000000000000000000000000000815260040160405180910390fd5b565b60008060008303612a4b576040517f376bec4d00000000000000000000000000000000000000000000000000000000815260040160405180910390fd5b60045460035484612a5c91906155e2565b1115612a94576040517fbd239bf600000000000000000000000000000000000000000000000000000000815260040160405180910390fd5b60007f000000000000000000000000000000000000000000000000000000000000000084612ac2919061524d565b9050612acd81613e5c565b60006001600354612ade91906155e2565b90508460036000828254019250508190555060006001600354612b0191906155e2565b9050818194509450505050915091565b612b1c838383613e98565b612b296000848484613f8c565b612b5f576040517fbcb5663700000000000000000000000000000000000000000000000000000000815260040160405180910390fd5b505050565b6000808273ffffffffffffffffffffffffffffffffffffffff163b119050919050565b50505050565b50505050565b612bb28473ffffffffffffffffffffffffffffffffffffffff16612b64565b612be8576040517fb9d3114700000000000000000000000000000000000000000000000000000000815260040160405180910390fd5b8373ffffffffffffffffffffffffffffffffffffffff166301ffc9a77f42b0e56f000000000000000000000000000000000000000000000000000000006040518263ffffffff1660e01b8152600401612c419190615551565b602060405180830381865afa158015612c5e573d6000803e3d6000fd5b505050506040513d601f19601f82011682018060405250810190612c829190615581565b612cb8576040517ffbd5d8b900000000000000000000000000000000000000000000000000000000815260040160405180910390fd5b612cc48484848461410a565b612cd46000856000858786613c87565b50505050565b60008060009054906101000a900473ffffffffffffffffffffffffffffffffffffffff169050816000806101000a81548173ffffffffffffffffffffffffffffffffffffffff021916908373ffffffffffffffffffffffffffffffffffffffff1602179055508173ffffffffffffffffffffffffffffffffffffffff168173ffffffffffffffffffffffffffffffffffffffff167f8be0079c531659141344cd1fd0a4f28419497f9722a3daafe3b4186f6b6457e060405160405180910390a35050565b612da66125ce565b6001600281905550565b612dc1612dbb6124ca565b82614321565b612df7576040517f2728a9d000000000000000000000000000000000000000000000000000000000815260040160405180910390fd5b50565b8060116000848152602001908152602001600020805490501115612e4a576040517f3ce62f1600000000000000000000000000000000000000000000000000000000815260040160405180910390fd5b612e53826143b6565b601160008381526020019081526020016000206000612e729190614700565b817f8ac4a0d65950c3e40448afb2260e2e0ec36ea15644d9b39e37e85472e5f9445160405160405180910390a2612ea8826143b9565b5050565b6000806000612eba85611f75565b50915091506000612eca8661127d565b90506001600c60008573ffffffffffffffffffffffffffffffffffffffff1673ffffffffffffffffffffffffffffffffffffffff1681526020019081526020016000206000828254612f1c91906155ae565b92505081905550612f2f81600088613ba6565b612f4e8360008460008a60405180602001604052806000815250613bab565b612f596000876124d2565b612f62866143bc565b6000612f6d8761155b565b9050601060008881526020019081526020016000206000612f8e9190614700565b601160008881526020019081526020016000206000612fad9190614700565b600d600088815260200190815260200160002060008373ffffffffffffffffffffffffffffffffffffffff1673ffffffffffffffffffffffffffffffffffffffff16815260200190815260200160002060006101000a81549073ffffffffffffffffffffffffffffffffffffffff021916905560008060008351905060005b81811015613235578983106130b65784818151811061304e5761304d6152ef565b5b60200260200101516020015185828151811061306d5761306c6152ef565b5b6020026020010151600001516040517f6177b2500000000000000000000000000000000000000000000000000000000081526004016130ad929190614ccc565b60405180910390fd5b601260008683815181106130cd576130cc6152ef565b5b60200260200101516020015173ffffffffffffffffffffffffffffffffffffffff1673ffffffffffffffffffffffffffffffffffffffff1681526020019081526020016000206000868381518110613128576131276152ef565b5b602002602001015160000151815260200190815260200160002060009055828a03935060018582815181106131605761315f6152ef565b5b60200260200101516020015173ffffffffffffffffffffffffffffffffffffffff1663b390c0ab87848151811061319a576131996152ef565b5b6020026020010151600001516001886131b391906155ae565b6040518363ffffffff1660e01b81526004016131d0929190615736565b6020604051808303816000875af11580156131ef573d6000803e3d6000fd5b505050506040513d601f19601f820116820180604052508101906132139190615774565b61321d91906155e2565b8361322891906155e2565b925080600101905061302c565b50600f60008b81526020019081526020016000206000808201600090556001820160006101000a81549073ffffffffffffffffffffffffffffffffffffffff02191690556001820160146101000a81549060ff0219169055505061329b8560008c613e4f565b6132ba8760008860008e60405180602001604052806000815250613e54565b89600073ffffffffffffffffffffffffffffffffffffffff168673ffffffffffffffffffffffffffffffffffffffff167fddf252ad1be2c89b69c2b068fc378daa952ba7f163c4a11628f55a4df523b3ef60405160405180910390a489600073ffffffffffffffffffffffffffffffffffffffff168873ffffffffffffffffffffffffffffffffffffffff167f04444026cefd1b05506559cab59d1b865ae3ba4ed2fe5c894f04e522776c552d89600060405161337892919061565b565b60405180910390a48197505050505050505092915050565b61339c84848484612687565b6133a884848484613f8c565b6133de576040517fbcb5663700000000000000000000000000000000000000000000000000000000815260040160405180910390fd5b50505050565b6060600060016133f3846143bf565b01905060008167ffffffffffffffff811115613412576134116148e8565b5b6040519080825280601f01601f1916602001820160405280156134445781602001600182028036833780820191505090505b509050600082602001820190505b6001156134a7578080600190039150507f3031323334353637383961626364656600000000000000000000000000000000600a86061a8153600a858161349b5761349a61528f565b5b04945060008503613452575b819350505050919050565b6134ba6146d0565b82156134d1576134ca8987611b77565b90506134de565b6134db8987610fb0565b90505b6134e9818686614512565b6134f7898787878787614591565b821561351e57613519601160008b815260200190815260200160002087614599565b61358f565b601260008673ffffffffffffffffffffffffffffffffffffffff1673ffffffffffffffffffffffffffffffffffffffff16815260200190815260200160002060008581526020019081526020016000206000905561358e601060008b815260200190815260200160002087614599565b5b600073ffffffffffffffffffffffffffffffffffffffff168873ffffffffffffffffffffffffffffffffffffffff16146136be5760008703613641578473ffffffffffffffffffffffffffffffffffffffff1663b88d4fde308a87866040518563ffffffff1660e01b815260040161360a94939291906157f6565b600060405180830381600087803b15801561362457600080fd5b505af1158015613638573d6000803e3d6000fd5b505050506136bd565b806020015173ffffffffffffffffffffffffffffffffffffffff1663064c0a3a308a84600001518b876040518663ffffffff1660e01b815260040161368a959493929190615842565b600060405180830381600087803b1580156136a457600080fd5b505af11580156136b8573d6000803e3d6000fd5b505050505b5b838573ffffffffffffffffffffffffffffffffffffffff168a7f02d6d6dbcb604d5e1e8c7886456e82a9cdce88b0a580071358f206b5a4d58f708987600073ffffffffffffffffffffffffffffffffffffffff168e73ffffffffffffffffffffffffffffffffffffffff16146040516137399392919061589c565b60405180910390a461374f8987878787876146bc565b505050505050505050565b60006137668585611b77565b9050613773818484614512565b6000601260008573ffffffffffffffffffffffffffffffffffffffff1673ffffffffffffffffffffffffffffffffffffffff168152602001908152602001600020600084815260200190815260200160002054146137fd576040517f188a497300000000000000000000000000000000000000000000000000000000815260040160405180910390fd5b613809858585856146c4565b6138256011600087815260200190815260200160002085614599565b601060008681526020019081526020016000208190806001815401808255809150506001900390600052602060002090600202016000909190919091506000820151816000015560208201518160010160006101000a81548173ffffffffffffffffffffffffffffffffffffffff021916908373ffffffffffffffffffffffffffffffffffffffff16021790555050506001601260008573ffffffffffffffffffffffffffffffffffffffff1673ffffffffffffffffffffffffffffffffffffffff168152602001908152602001600020600084815260200190815260200160002081905550818373ffffffffffffffffffffffffffffffffffffffff16867f29486b9e2ae569b440933a9b1b421467306fa21f3dcad439c262910a634963a9876040516139539190614c1e565b60405180910390a4613967858585856146ca565b5050505050565b600080600061397c84611f75565b5091509150600081146139c1578173ffffffffffffffffffffffffffffffffffffffff168573ffffffffffffffffffffffffffffffffffffffff161492505050613a44565b8173ffffffffffffffffffffffffffffffffffffffff168573ffffffffffffffffffffffffffffffffffffffff161480613a015750613a008286611e67565b5b80613a3f57508473ffffffffffffffffffffffffffffffffffffffff16613a2785610d3c565b73ffffffffffffffffffffffffffffffffffffffff16145b925050505b92915050565b60005b6064811015613b6e5760008060008573ffffffffffffffffffffffffffffffffffffffff1663fb25fb7a866040518263ffffffff1660e01b8152600401613a949190614c1e565b606060405180830381865afa158015613ab1573d6000803e3d6000fd5b505050506040513d601f19601f82011682018060405250810190613ad591906158d3565b92509250925080613ae95750505050613ba1565b3073ffffffffffffffffffffffffffffffffffffffff168373ffffffffffffffffffffffffffffffffffffffff16148015613b2357508682145b15613b5a576040517f48a87cda00000000000000000000000000000000000000000000000000000000815260040160405180910390fd5b829550819450836001019350505050613a4d565b506040517f6934d7a000000000000000000000000000000000000000000000000000000000815260040160405180910390fd5b505050565b505050565b505050505050565b60405180606001604052808481526020018373ffffffffffffffffffffffffffffffffffffffff168152602001821515815250600f60008681526020019081526020016000206000820151816000015560208201518160010160006101000a81548173ffffffffffffffffffffffffffffffffffffffff021916908373ffffffffffffffffffffffffffffffffffffffff16021790555060408201518160010160146101000a81548160ff021916908315150217905550905050613c786000856124d2565b613c81846143bc565b50505050565b60008590508073ffffffffffffffffffffffffffffffffffffffff1663635490cc8585856040518463ffffffff1660e01b8152600401613cc993929190615926565b600060405180830381600087803b158015613ce357600080fd5b505af1158015613cf7573d6000803e3d6000fd5b50505050613d06878785613e4f565b613d14878787878787613e54565b828673ffffffffffffffffffffffffffffffffffffffff168873ffffffffffffffffffffffffffffffffffffffff167fddf252ad1be2c89b69c2b068fc378daa952ba7f163c4a11628f55a4df523b3ef60405160405180910390a4828673ffffffffffffffffffffffffffffffffffffffff168873ffffffffffffffffffffffffffffffffffffffff167f04444026cefd1b05506559cab59d1b865ae3ba4ed2fe5c894f04e522776c552d8888604051613dcf929190615736565b60405180910390a450505050505050565b60008073ffffffffffffffffffffffffffffffffffffffff16600f600084815260200190815260200160002060010160009054906101000a900473ffffffffffffffffffffffffffffffffffffffff1673ffffffffffffffffffffffffffffffffffffffff1614159050919050565b505050565b505050505050565b348114613e95576040517ff2ffecad00000000000000000000000000000000000000000000000000000000815260040160405180910390fd5b50565b613ea5838360008461410a565b818373ffffffffffffffffffffffffffffffffffffffff16600073ffffffffffffffffffffffffffffffffffffffff167fddf252ad1be2c89b69c2b068fc378daa952ba7f163c4a11628f55a4df523b3ef60405160405180910390a4818373ffffffffffffffffffffffffffffffffffffffff16600073ffffffffffffffffffffffffffffffffffffffff167f04444026cefd1b05506559cab59d1b865ae3ba4ed2fe5c894f04e522776c552d600080604051613f63929190615964565b60405180910390a4613f7760008484613e4f565b613f876000846000808686613e54565b505050565b6000613fad8473ffffffffffffffffffffffffffffffffffffffff16612b64565b156140fd578373ffffffffffffffffffffffffffffffffffffffff1663150b7a02613fd66124ca565b8786866040518563ffffffff1660e01b8152600401613ff894939291906157f6565b6020604051808303816000875af192505050801561403457506040513d601f19601f8201168201806040525081019061403191906159a2565b60015b6140ad573d8060008114614064576040519150601f19603f3d011682016040523d82523d6000602084013e614069565b606091505b5060008151036140a5576040517fbcb5663700000000000000000000000000000000000000000000000000000000815260040160405180910390fd5b805181602001fd5b63150b7a0260e01b7bffffffffffffffffffffffffffffffffffffffffffffffffffffffff1916817bffffffffffffffffffffffffffffffffffffffffffffffffffffffff191614915050614102565b600190505b949350505050565b600073ffffffffffffffffffffffffffffffffffffffff168473ffffffffffffffffffffffffffffffffffffffff1603614170576040517f25bd6bd300000000000000000000000000000000000000000000000000000000815260040160405180910390fd5b61417983613de0565b156141b0576040517fc5a8d37100000000000000000000000000000000000000000000000000000000815260040160405180910390fd5b600083036141ea576040517f12c33ce300000000000000000000000000000000000000000000000000000000815260040160405180910390fd5b6141f660008585613ba6565b6142066000856000858786613bab565b6001600c60008673ffffffffffffffffffffffffffffffffffffffff1673ffffffffffffffffffffffffffffffffffffffff168152602001908152602001600020600082825461425691906155e2565b9250508190555060405180606001604052808381526020018573ffffffffffffffffffffffffffffffffffffffff16815260200160008414151515815250600f60008581526020019081526020016000206000820151816000015560208201518160010160006101000a81548173ffffffffffffffffffffffffffffffffffffffff021916908373ffffffffffffffffffffffffffffffffffffffff16021790555060408201518160010160146101000a81548160ff02191690831515021790555090505050505050565b60008061432d8361127d565b90508073ffffffffffffffffffffffffffffffffffffffff168473ffffffffffffffffffffffffffffffffffffffff16148061436f575061436e8185611e67565b5b806143ad57508373ffffffffffffffffffffffffffffffffffffffff1661439584610d3c565b73ffffffffffffffffffffffffffffffffffffffff16145b91505092915050565b50565b50565b50565b600080600090507a184f03e93ff9f4daa797ed6e38ed64bf6a1f010000000000000000831061441d577a184f03e93ff9f4daa797ed6e38ed64bf6a1f01000000000000000083816144135761441261528f565b5b0492506040810190505b6d04ee2d6d415b85acef8100000000831061445a576d04ee2d6d415b85acef810000000083816144505761444f61528f565b5b0492506020810190505b662386f26fc10000831061448957662386f26fc10000838161447f5761447e61528f565b5b0492506010810190505b6305f5e10083106144b2576305f5e10083816144a8576144a761528f565b5b0492506008810190505b61271083106144d75761271083816144cd576144cc61528f565b5b0492506004810190505b606483106144fa57606483816144f0576144ef61528f565b5b0492506002810190505b600a8310614509576001810190505b80915050919050565b826020015173ffffffffffffffffffffffffffffffffffffffff168273ffffffffffffffffffffffffffffffffffffffff16141580614555575082600001518114155b1561458c576040517fe707e58200000000000000000000000000000000000000000000000000000000815260040160405180910390fd5b505050565b505050505050565b81600183805490506145ab91906155ae565b815481106145bc576145bb6152ef565b5b90600052602060002090600202018282815481106145dd576145dc6152ef565b5b9060005260206000209060020201600082015481600001556001820160009054906101000a900473ffffffffffffffffffffffffffffffffffffffff168160010160006101000a81548173ffffffffffffffffffffffffffffffffffffffff021916908373ffffffffffffffffffffffffffffffffffffffff160217905550905050818054806146705761466f6159cf565b5b60019003818190600052602060002090600202016000808201600090556001820160006101000a81549073ffffffffffffffffffffffffffffffffffffffff0219169055505090555050565b505050505050565b50505050565b50505050565b604051806040016040528060008152602001600073ffffffffffffffffffffffffffffffffffffffff1681525090565b50805460008255600202906000526020600020908101906147219190614724565b50565b5b80821115614766576000808201600090556001820160006101000a81549073ffffffffffffffffffffffffffffffffffffffff021916905550600201614725565b5090565b6000604051905090565b600080fd5b600080fd5b60007fffffffff0000000000000000000000000000000000000000000000000000000082169050919050565b6147b38161477e565b81146147be57600080fd5b50565b6000813590506147d0816147aa565b92915050565b6000602082840312156147ec576147eb614774565b5b60006147fa848285016147c1565b91505092915050565b60008115159050919050565b61481881614803565b82525050565b6000602082019050614833600083018461480f565b92915050565b600073ffffffffffffffffffffffffffffffffffffffff82169050919050565b600061486482614839565b9050919050565b61487481614859565b811461487f57600080fd5b50565b6000813590506148918161486b565b92915050565b6000819050919050565b6148aa81614897565b81146148b557600080fd5b50565b6000813590506148c7816148a1565b92915050565b600080fd5b600080fd5b6000601f19601f8301169050919050565b7f4e487b7100000000000000000000000000000000000000000000000000000000600052604160045260246000fd5b614920826148d7565b810181811067ffffffffffffffff8211171561493f5761493e6148e8565b5b80604052505050565b600061495261476a565b905061495e8282614917565b919050565b600067ffffffffffffffff82111561497e5761497d6148e8565b5b614987826148d7565b9050602081019050919050565b82818337600083830152505050565b60006149b66149b184614963565b614948565b9050828152602081018484840111156149d2576149d16148d2565b5b6149dd848285614994565b509392505050565b600082601f8301126149fa576149f96148cd565b5b8135614a0a8482602086016149a3565b91505092915050565b600080600080600060a08688031215614a2f57614a2e614774565b5b6000614a3d88828901614882565b9550506020614a4e88828901614882565b9450506040614a5f888289016148b8565b9350506060614a70888289016148b8565b925050608086013567ffffffffffffffff811115614a9157614a90614779565b5b614a9d888289016149e5565b9150509295509295909350565b600081519050919050565b600082825260208201905092915050565b60005b83811015614ae4578082015181840152602081019050614ac9565b60008484015250505050565b6000614afb82614aaa565b614b058185614ab5565b9350614b15818560208601614ac6565b614b1e816148d7565b840191505092915050565b60006020820190508181036000830152614b438184614af0565b905092915050565b600060208284031215614b6157614b60614774565b5b6000614b6f848285016148b8565b91505092915050565b614b8181614859565b82525050565b6000602082019050614b9c6000830184614b78565b92915050565b60008060408385031215614bb957614bb8614774565b5b6000614bc785828601614882565b9250506020614bd8858286016148b8565b9150509250929050565b600060208284031215614bf857614bf7614774565b5b6000614c0684828501614882565b91505092915050565b614c1881614897565b82525050565b6000602082019050614c336000830184614c0f565b92915050565b600080600060608486031215614c5257614c51614774565b5b6000614c6086828701614882565b9350506020614c7186828701614882565b9250506040614c82868287016148b8565b9150509250925092565b60008060408385031215614ca357614ca2614774565b5b6000614cb1858286016148b8565b9250506020614cc2858286016148b8565b9150509250929050565b6000604082019050614ce16000830185614b78565b614cee6020830184614c0f565b9392505050565b614cfe81614897565b82525050565b614d0d81614859565b82525050565b604082016000820151614d296000850182614cf5565b506020820151614d3c6020850182614d04565b50505050565b6000604082019050614d576000830184614d13565b92915050565b600081519050919050565b600082825260208201905092915050565b6000819050602082019050919050565b604082016000820151614d9f6000850182614cf5565b506020820151614db26020850182614d04565b50505050565b6000614dc48383614d89565b60408301905092915050565b6000602082019050919050565b6000614de882614d5d565b614df28185614d68565b9350614dfd83614d79565b8060005b83811015614e2e578151614e158882614db8565b9750614e2083614dd0565b925050600181019050614e01565b5085935050505092915050565b60006020820190508181036000830152614e558184614ddd565b905092915050565b600080600060608486031215614e7657614e75614774565b5b6000614e84868287016148b8565b9350506020614e95868287016148b8565b925050604084013567ffffffffffffffff811115614eb657614eb5614779565b5b614ec2868287016149e5565b9150509250925092565b600080600060608486031215614ee557614ee4614774565b5b6000614ef386828701614882565b9350506020614f04868287016148b8565b9250506040614f15868287016148b8565b9150509250925092565b614f2881614803565b8114614f3357600080fd5b50565b600081359050614f4581614f1f565b92915050565b60008060408385031215614f6257614f61614774565b5b6000614f7085828601614882565b9250506020614f8185828601614f36565b9150509250929050565b60008060008060808587031215614fa557614fa4614774565b5b6000614fb387828801614882565b9450506020614fc487828801614882565b9350506040614fd5878288016148b8565b925050606085013567ffffffffffffffff811115614ff657614ff5614779565b5b615002878288016149e5565b91505092959194509250565b600080600080600080600080610100898b03121561502f5761502e614774565b5b600061503d8b828c016148b8565b985050602061504e8b828c01614882565b975050604061505f8b828c016148b8565b96505060606150708b828c016148b8565b95505060806150818b828c01614882565b94505060a06150928b828c016148b8565b93505060c06150a38b828c01614f36565b92505060e089013567ffffffffffffffff8111156150c4576150c3614779565b5b6150d08b828c016149e5565b9150509295985092959890939650565b600080600080608085870312156150fa576150f9614774565b5b6000615108878288016148b8565b9450506020615119878288016148b8565b935050604061512a87828801614882565b925050606061513b878288016148b8565b91505092959194509250565b6000806040838503121561515e5761515d614774565b5b600061516c85828601614882565b925050602061517d85828601614882565b9150509250929050565b600060608201905061519c6000830186614b78565b6151a96020830185614c0f565b6151b6604083018461480f565b949350505050565b7f4e487b7100000000000000000000000000000000000000000000000000000000600052602260045260246000fd5b6000600282049050600182168061520557607f821691505b602082108103615218576152176151be565b5b50919050565b7f4e487b7100000000000000000000000000000000000000000000000000000000600052601160045260246000fd5b600061525882614897565b915061526383614897565b925082820261527181614897565b915082820484148315176152885761528761521e565b5b5092915050565b7f4e487b7100000000000000000000000000000000000000000000000000000000600052601260045260246000fd5b60006152c982614897565b91506152d483614897565b9250826152e4576152e361528f565b5b828204905092915050565b7f4e487b7100000000000000000000000000000000000000000000000000000000600052603260045260246000fd5b60008151905061532d8161486b565b92915050565b60006020828403121561534957615348614774565b5b60006153578482850161531e565b91505092915050565b600081905092915050565b60008190508160005260206000209050919050565b6000815461538d816151ed565b6153978186615360565b945060018216600081146153b257600181146153c7576153fa565b60ff19831686528115158202860193506153fa565b6153d08561536b565b60005b838110156153f2578154818901526001820191506020810190506153d3565b838801955050505b50505092915050565b600061540e82614aaa565b6154188185615360565b9350615428818560208601614ac6565b80840191505092915050565b60006154408285615380565b915061544c8284615403565b91508190509392505050565b600067ffffffffffffffff821115615473576154726148e8565b5b61547c826148d7565b9050602081019050919050565b600061549c61549784615458565b614948565b9050828152602081018484840111156154b8576154b76148d2565b5b6154c3848285614ac6565b509392505050565b600082601f8301126154e0576154df6148cd565b5b81516154f0848260208601615489565b91505092915050565b60006020828403121561550f5761550e614774565b5b600082015167ffffffffffffffff81111561552d5761552c614779565b5b615539848285016154cb565b91505092915050565b61554b8161477e565b82525050565b60006020820190506155666000830184615542565b92915050565b60008151905061557b81614f1f565b92915050565b60006020828403121561559757615596614774565b5b60006155a58482850161556c565b91505092915050565b60006155b982614897565b91506155c483614897565b92508282039050818111156155dc576155db61521e565b5b92915050565b60006155ed82614897565b91506155f883614897565b92508282019050808211156156105761560f61521e565b5b92915050565b6000819050919050565b6000819050919050565b600061564561564061563b84615616565b615620565b614897565b9050919050565b6156558161562a565b82525050565b60006040820190506156706000830185614c0f565b61567d602083018461564c565b9392505050565b600081905092915050565b50565b600061569f600083615684565b91506156aa8261568f565b600082019050919050565b60006156c082615692565b9150819050919050565b7f5472616e73666572206661696c65642e00000000000000000000000000000000600082015250565b6000615700601083614ab5565b915061570b826156ca565b602082019050919050565b6000602082019050818103600083015261572f816156f3565b9050919050565b600060408201905061574b6000830185614c0f565b6157586020830184614c0f565b9392505050565b60008151905061576e816148a1565b92915050565b60006020828403121561578a57615789614774565b5b60006157988482850161575f565b91505092915050565b600081519050919050565b600082825260208201905092915050565b60006157c8826157a1565b6157d281856157ac565b93506157e2818560208601614ac6565b6157eb816148d7565b840191505092915050565b600060808201905061580b6000830187614b78565b6158186020830186614b78565b6158256040830185614c0f565b818103606083015261583781846157bd565b905095945050505050565b600060a0820190506158576000830188614b78565b6158646020830187614b78565b6158716040830186614c0f565b61587e6060830185614c0f565b818103608083015261589081846157bd565b90509695505050505050565b60006060820190506158b16000830186614c0f565b6158be602083018561480f565b6158cb604083018461480f565b949350505050565b6000806000606084860312156158ec576158eb614774565b5b60006158fa8682870161531e565b935050602061590b8682870161575f565b925050604061591c8682870161556c565b9150509250925092565b600060608201905061593b6000830186614c0f565b6159486020830185614c0f565b818103604083015261595a81846157bd565b9050949350505050565b6000604082019050615979600083018561564c565b615986602083018461564c565b9392505050565b60008151905061599c816147aa565b92915050565b6000602082840312156159b8576159b7614774565b5b60006159c68482850161598d565b91505092915050565b7f4e487b7100000000000000000000000000000000000000000000000000000000600052603160045260246000fdfea2646970667358221220c1a3fcfc9be66d6c1a43aba713d95027dd68a76a08477c400d6f320a41ce41a564736f6c6343000812003368747470733a2f2f707572706c652d736f6c69642d6c656f706172642d3235362e6d7970696e6174612e636c6f75642f697066732f6261666b726569657a6b7a666e677835777236656264366478356f6c627337677261633277696c3461736f323270766e7a786a676c366f3433716d3f5f676c3d312a316279643462322a5f67612a4d5451304e6a417a4f4463774d6934784e6a63324f5441784d5463342a5f67615f35524d505847313454452a4d5459334e7a4d794e6a51774d7934354c6a45754d5459334e7a4d794e6a55314e4334304c6a41754d412e2e68747470733a2f2f707572706c652d736f6c69642d6c656f706172642d3235362e6d7970696e6174612e636c6f75642f697066732f516d4e4c796553734c62505a4455746f47507a6b62755853744e486646646a724e413931786b385651394d70614e",
  "linkReferences": {},
  "deployedLinkReferences": {}
}