{
  "_format": "hh-sol-artifact-1",
  "contractName": "UtilitiesDemo",
  "sourceName": "contracts/UtilitiesDemo.sol",
  "abi": [
    {
      "inputs": [
        {
          "components": [
            {
              "internalType": "address",
              "name": "erc20TokenAddress",
              "type": "address"
            },
            {
              "internalType": "bool",
              "name": "tokenUriIsEnumerable",
              "type": "bool"
            },
            {
              "internalType": "address",
              "name": "royaltyRecipient",
              "type": "address"
            },
            {
              "internalType": "uint16",
              "name": "royaltyPercentageBps",
              "type": "uint16"
            },
            {
              "internalType": "uint256",
              "name": "maxSupply",
              "type": "uint256"
            },
            {
              "internalType": "uint256",
              "name": "pricePerMint",
              "type": "uint256"
            }
          ],
          "internalType": "struct IRMRKInitData.InitData",
          "name": "data",
          "type": "tuple"
        }
      ],
      "stateMutability": "nonpayable",
      "type": "constructor"
    },
    {
      "inputs": [],
      "name": "ERC721AddressZeroIsNotaValidOwner",
      "type": "error"
    },
    {
      "inputs": [],
      "name": "ERC721ApprovalToCurrentOwner",
      "type": "error"
    },
    {
      "inputs": [],
      "name": "ERC721ApproveCallerIsNotOwnerNorApprovedForAll",
      "type": "error"
    },
    {
      "inputs": [],
      "name": "ERC721ApproveToCaller",
      "type": "error"
    },
    {
      "inputs": [],
      "name": "ERC721InvalidTokenId",
      "type": "error"
    },
    {
      "inputs": [],
      "name": "ERC721MintToTheZeroAddress",
      "type": "error"
    },
    {
      "inputs": [],
      "name": "ERC721NotApprovedOrOwner",
      "type": "error"
    },
    {
      "inputs": [],
      "name": "ERC721TokenAlreadyMinted",
      "type": "error"
    },
    {
      "inputs": [],
      "name": "ERC721TransferFromIncorrectOwner",
      "type": "error"
    },
    {
      "inputs": [],
      "name": "ERC721TransferToNonReceiverImplementer",
      "type": "error"
    },
    {
      "inputs": [],
      "name": "ERC721TransferToTheZeroAddress",
      "type": "error"
    },
    {
      "inputs": [],
      "name": "RMRKChildAlreadyExists",
      "type": "error"
    },
    {
      "inputs": [],
      "name": "RMRKChildIndexOutOfRange",
      "type": "error"
    },
    {
      "inputs": [],
      "name": "RMRKIdZeroForbidden",
      "type": "error"
    },
    {
      "inputs": [],
      "name": "RMRKIsNotContract",
      "type": "error"
    },
    {
      "inputs": [],
      "name": "RMRKLocked",
      "type": "error"
    },
    {
      "inputs": [],
      "name": "RMRKMaxPendingChildrenReached",
      "type": "error"
    },
    {
      "inputs": [
        {
          "internalType": "address",
          "name": "childContract",
          "type": "address"
        },
        {
          "internalType": "uint256",
          "name": "childId",
          "type": "uint256"
        }
      ],
      "name": "RMRKMaxRecursiveBurnsReached",
      "type": "error"
    },
    {
      "inputs": [],
      "name": "RMRKMintOverMax",
      "type": "error"
    },
    {
      "inputs": [],
      "name": "RMRKMintUnderpriced",
      "type": "error"
    },
    {
      "inputs": [],
      "name": "RMRKMintZero",
      "type": "error"
    },
    {
      "inputs": [],
      "name": "RMRKNestableTooDeep",
      "type": "error"
    },
    {
      "inputs": [],
      "name": "RMRKNestableTransferToDescendant",
      "type": "error"
    },
    {
      "inputs": [],
      "name": "RMRKNestableTransferToNonRMRKNestableImplementer",
      "type": "error"
    },
    {
      "inputs": [],
      "name": "RMRKNestableTransferToSelf",
      "type": "error"
    },
    {
      "inputs": [],
      "name": "RMRKNewContributorIsZeroAddress",
      "type": "error"
    },
    {
      "inputs": [],
      "name": "RMRKNewOwnerIsZeroAddress",
      "type": "error"
    },
    {
      "inputs": [],
      "name": "RMRKNotApprovedOrDirectOwner",
      "type": "error"
    },
    {
      "inputs": [],
      "name": "RMRKNotOwner",
      "type": "error"
    },
    {
      "inputs": [],
      "name": "RMRKPendingChildIndexOutOfRange",
      "type": "error"
    },
    {
      "inputs": [],
      "name": "RMRKUnexpectedChildId",
      "type": "error"
    },
    {
      "inputs": [],
      "name": "RMRKUnexpectedNumberOfChildren",
      "type": "error"
    },
    {
      "anonymous": false,
      "inputs": [
        {
          "indexed": true,
          "internalType": "uint256",
          "name": "tokenId",
          "type": "uint256"
        }
      ],
      "name": "AllChildrenRejected",
      "type": "event"
    },
    {
      "anonymous": false,
      "inputs": [
        {
          "indexed": true,
          "internalType": "address",
          "name": "owner",
          "type": "address"
        },
        {
          "indexed": true,
          "internalType": "address",
          "name": "approved",
          "type": "address"
        },
        {
          "indexed": true,
          "internalType": "uint256",
          "name": "tokenId",
          "type": "uint256"
        }
      ],
      "name": "Approval",
      "type": "event"
    },
    {
      "anonymous": false,
      "inputs": [
        {
          "indexed": true,
          "internalType": "address",
          "name": "owner",
          "type": "address"
        },
        {
          "indexed": true,
          "internalType": "address",
          "name": "operator",
          "type": "address"
        },
        {
          "indexed": false,
          "internalType": "bool",
          "name": "approved",
          "type": "bool"
        }
      ],
      "name": "ApprovalForAll",
      "type": "event"
    },
    {
      "anonymous": false,
      "inputs": [
        {
          "indexed": true,
          "internalType": "uint256",
          "name": "tokenId",
          "type": "uint256"
        },
        {
          "indexed": false,
          "internalType": "uint256",
          "name": "childIndex",
          "type": "uint256"
        },
        {
          "indexed": true,
          "internalType": "address",
          "name": "childAddress",
          "type": "address"
        },
        {
          "indexed": true,
          "internalType": "uint256",
          "name": "childId",
          "type": "uint256"
        }
      ],
      "name": "ChildAccepted",
      "type": "event"
    },
    {
      "anonymous": false,
      "inputs": [
        {
          "indexed": true,
          "internalType": "uint256",
          "name": "tokenId",
          "type": "uint256"
        },
        {
          "indexed": false,
          "internalType": "uint256",
          "name": "childIndex",
          "type": "uint256"
        },
        {
          "indexed": true,
          "internalType": "address",
          "name": "childAddress",
          "type": "address"
        },
        {
          "indexed": true,
          "internalType": "uint256",
          "name": "childId",
          "type": "uint256"
        }
      ],
      "name": "ChildProposed",
      "type": "event"
    },
    {
      "anonymous": false,
      "inputs": [
        {
          "indexed": true,
          "internalType": "uint256",
          "name": "tokenId",
          "type": "uint256"
        },
        {
          "indexed": false,
          "internalType": "uint256",
          "name": "childIndex",
          "type": "uint256"
        },
        {
          "indexed": true,
          "internalType": "address",
          "name": "childAddress",
          "type": "address"
        },
        {
          "indexed": true,
          "internalType": "uint256",
          "name": "childId",
          "type": "uint256"
        },
        {
          "indexed": false,
          "internalType": "bool",
          "name": "fromPending",
          "type": "bool"
        },
        {
          "indexed": false,
          "internalType": "bool",
          "name": "toZero",
          "type": "bool"
        }
      ],
      "name": "ChildTransferred",
      "type": "event"
    },
    {
      "anonymous": false,
      "inputs": [
        {
          "indexed": true,
          "internalType": "address",
          "name": "contributor",
          "type": "address"
        },
        {
          "indexed": false,
          "internalType": "bool",
          "name": "isContributor",
          "type": "bool"
        }
      ],
      "name": "ContributorUpdate",
      "type": "event"
    },
    {
      "anonymous": false,
      "inputs": [
        {
          "indexed": true,
          "internalType": "address",
          "name": "from",
          "type": "address"
        },
        {
          "indexed": true,
          "internalType": "address",
          "name": "to",
          "type": "address"
        },
        {
          "indexed": false,
          "internalType": "uint256",
          "name": "fromTokenId",
          "type": "uint256"
        },
        {
          "indexed": false,
          "internalType": "uint256",
          "name": "toTokenId",
          "type": "uint256"
        },
        {
          "indexed": true,
          "internalType": "uint256",
          "name": "tokenId",
          "type": "uint256"
        }
      ],
      "name": "NestTransfer",
      "type": "event"
    },
    {
      "anonymous": false,
      "inputs": [
        {
          "indexed": true,
          "internalType": "address",
          "name": "previousOwner",
          "type": "address"
        },
        {
          "indexed": true,
          "internalType": "address",
          "name": "newOwner",
          "type": "address"
        }
      ],
      "name": "OwnershipTransferred",
      "type": "event"
    },
    {
      "anonymous": false,
      "inputs": [
        {
          "indexed": true,
          "internalType": "address",
          "name": "from",
          "type": "address"
        },
        {
          "indexed": true,
          "internalType": "address",
          "name": "to",
          "type": "address"
        },
        {
          "indexed": true,
          "internalType": "uint256",
          "name": "tokenId",
          "type": "uint256"
        }
      ],
      "name": "Transfer",
      "type": "event"
    },
    {
      "inputs": [],
      "name": "VERSION",
      "outputs": [
        {
          "internalType": "string",
          "name": "",
          "type": "string"
        }
      ],
      "stateMutability": "view",
      "type": "function"
    },
    {
      "inputs": [
        {
          "internalType": "uint256",
          "name": "parentId",
          "type": "uint256"
        },
        {
          "internalType": "uint256",
          "name": "childIndex",
          "type": "uint256"
        },
        {
          "internalType": "address",
          "name": "childAddress",
          "type": "address"
        },
        {
          "internalType": "uint256",
          "name": "childId",
          "type": "uint256"
        }
      ],
      "name": "acceptChild",
      "outputs": [],
      "stateMutability": "nonpayable",
      "type": "function"
    },
    {
      "inputs": [
        {
          "internalType": "uint256",
          "name": "parentId",
          "type": "uint256"
        },
        {
          "internalType": "uint256",
          "name": "childId",
          "type": "uint256"
        },
        {
          "internalType": "bytes",
          "name": "data",
          "type": "bytes"
        }
      ],
      "name": "addChild",
      "outputs": [],
      "stateMutability": "nonpayable",
      "type": "function"
    },
    {
      "inputs": [
        {
          "internalType": "address",
          "name": "to",
          "type": "address"
        },
        {
          "internalType": "uint256",
          "name": "tokenId",
          "type": "uint256"
        }
      ],
      "name": "approve",
      "outputs": [],
      "stateMutability": "nonpayable",
      "type": "function"
    },
    {
      "inputs": [
        {
          "internalType": "address",
          "name": "owner",
          "type": "address"
        }
      ],
      "name": "balanceOf",
      "outputs": [
        {
          "internalType": "uint256",
          "name": "",
          "type": "uint256"
        }
      ],
      "stateMutability": "view",
      "type": "function"
    },
    {
      "inputs": [
        {
          "internalType": "uint256",
          "name": "tokenId",
          "type": "uint256"
        }
      ],
      "name": "burn",
      "outputs": [],
      "stateMutability": "nonpayable",
      "type": "function"
    },
    {
      "inputs": [
        {
          "internalType": "uint256",
          "name": "tokenId",
          "type": "uint256"
        },
        {
          "internalType": "uint256",
          "name": "maxChildrenBurns",
          "type": "uint256"
        }
      ],
      "name": "burn",
      "outputs": [
        {
          "internalType": "uint256",
          "name": "",
          "type": "uint256"
        }
      ],
      "stateMutability": "nonpayable",
      "type": "function"
    },
    {
      "inputs": [
        {
          "internalType": "address",
          "name": "childAddress",
          "type": "address"
        },
        {
          "internalType": "uint256",
          "name": "childId",
          "type": "uint256"
        }
      ],
      "name": "childIsInActive",
      "outputs": [
        {
          "internalType": "bool",
          "name": "",
          "type": "bool"
        }
      ],
      "stateMutability": "view",
      "type": "function"
    },
    {
      "inputs": [
        {
          "internalType": "uint256",
          "name": "parentId",
          "type": "uint256"
        },
        {
          "internalType": "uint256",
          "name": "index",
          "type": "uint256"
        }
      ],
      "name": "childOf",
      "outputs": [
        {
          "components": [
            {
              "internalType": "uint256",
              "name": "tokenId",
              "type": "uint256"
            },
            {
              "internalType": "address",
              "name": "contractAddress",
              "type": "address"
            }
          ],
          "internalType": "struct IRMRKNestable.Child",
          "name": "",
          "type": "tuple"
        }
      ],
      "stateMutability": "view",
      "type": "function"
    },
    {
      "inputs": [
        {
          "internalType": "uint256",
          "name": "parentId",
          "type": "uint256"
        }
      ],
      "name": "childrenOf",
      "outputs": [
        {
          "components": [
            {
              "internalType": "uint256",
              "name": "tokenId",
              "type": "uint256"
            },
            {
              "internalType": "address",
              "name": "contractAddress",
              "type": "address"
            }
          ],
          "internalType": "struct IRMRKNestable.Child[]",
          "name": "",
          "type": "tuple[]"
        }
      ],
      "stateMutability": "view",
      "type": "function"
    },
    {
      "inputs": [],
      "name": "collectionMetadata",
      "outputs": [
        {
          "internalType": "string",
          "name": "",
          "type": "string"
        }
      ],
      "stateMutability": "view",
      "type": "function"
    },
    {
      "inputs": [],
      "name": "contractURI",
      "outputs": [
        {
          "internalType": "string",
          "name": "",
          "type": "string"
        }
      ],
      "stateMutability": "view",
      "type": "function"
    },
    {
      "inputs": [
        {
          "internalType": "uint256",
          "name": "tokenId",
          "type": "uint256"
        }
      ],
      "name": "directOwnerOf",
      "outputs": [
        {
          "internalType": "address",
          "name": "",
          "type": "address"
        },
        {
          "internalType": "uint256",
          "name": "",
          "type": "uint256"
        },
        {
          "internalType": "bool",
          "name": "",
          "type": "bool"
        }
      ],
      "stateMutability": "view",
      "type": "function"
    },
    {
      "inputs": [
        {
          "internalType": "uint256",
          "name": "tokenId",
          "type": "uint256"
        }
      ],
      "name": "getApproved",
      "outputs": [
        {
          "internalType": "address",
          "name": "",
          "type": "address"
        }
      ],
      "stateMutability": "view",
      "type": "function"
    },
    {
      "inputs": [],
      "name": "getLock",
      "outputs": [
        {
          "internalType": "bool",
          "name": "",
          "type": "bool"
        }
      ],
      "stateMutability": "view",
      "type": "function"
    },
    {
      "inputs": [
        {
          "internalType": "address",
          "name": "owner",
          "type": "address"
        },
        {
          "internalType": "uint256",
          "name": "index",
          "type": "uint256"
        }
      ],
      "name": "getOwnerCollectionByIndex",
      "outputs": [
        {
          "internalType": "uint256",
          "name": "tokenId",
          "type": "uint256"
        },
        {
          "internalType": "string",
          "name": "tokenUri",
          "type": "string"
        }
      ],
      "stateMutability": "view",
      "type": "function"
    },
    {
      "inputs": [],
      "name": "getRoyaltyPercentage",
      "outputs": [
        {
          "internalType": "uint256",
          "name": "",
          "type": "uint256"
        }
      ],
      "stateMutability": "view",
      "type": "function"
    },
    {
      "inputs": [],
      "name": "getRoyaltyRecipient",
      "outputs": [
        {
          "internalType": "address",
          "name": "",
          "type": "address"
        }
      ],
      "stateMutability": "view",
      "type": "function"
    },
    {
      "inputs": [
        {
          "internalType": "address",
          "name": "owner",
          "type": "address"
        },
        {
          "internalType": "address",
          "name": "operator",
          "type": "address"
        }
      ],
      "name": "isApprovedForAll",
      "outputs": [
        {
          "internalType": "bool",
          "name": "",
          "type": "bool"
        }
      ],
      "stateMutability": "view",
      "type": "function"
    },
    {
      "inputs": [
        {
          "internalType": "address",
          "name": "contributor",
          "type": "address"
        }
      ],
      "name": "isContributor",
      "outputs": [
        {
          "internalType": "bool",
          "name": "",
          "type": "bool"
        }
      ],
      "stateMutability": "view",
      "type": "function"
    },
    {
      "inputs": [
        {
          "internalType": "address",
          "name": "contributor",
          "type": "address"
        },
        {
          "internalType": "bool",
          "name": "grantRole",
          "type": "bool"
        }
      ],
      "name": "manageContributor",
      "outputs": [],
      "stateMutability": "nonpayable",
      "type": "function"
    },
    {
      "inputs": [],
      "name": "maxSupply",
      "outputs": [
        {
          "internalType": "uint256",
          "name": "",
          "type": "uint256"
        }
      ],
      "stateMutability": "view",
      "type": "function"
    },
    {
      "inputs": [
        {
          "internalType": "address",
          "name": "to",
          "type": "address"
        },
        {
          "internalType": "uint256",
          "name": "numToMint",
          "type": "uint256"
        }
      ],
      "name": "mint",
      "outputs": [],
      "stateMutability": "payable",
      "type": "function"
    },
    {
      "inputs": [],
      "name": "name",
      "outputs": [
        {
          "internalType": "string",
          "name": "",
          "type": "string"
        }
      ],
      "stateMutability": "view",
      "type": "function"
    },
    {
      "inputs": [
        {
          "internalType": "address",
          "name": "from",
          "type": "address"
        },
        {
          "internalType": "address",
          "name": "to",
          "type": "address"
        },
        {
          "internalType": "uint256",
          "name": "tokenId",
          "type": "uint256"
        },
        {
          "internalType": "uint256",
          "name": "destinationId",
          "type": "uint256"
        },
        {
          "internalType": "bytes",
          "name": "data",
          "type": "bytes"
        }
      ],
      "name": "nestTransferFrom",
      "outputs": [],
      "stateMutability": "nonpayable",
      "type": "function"
    },
    {
      "inputs": [],
      "name": "owner",
      "outputs": [
        {
          "internalType": "address",
          "name": "",
          "type": "address"
        }
      ],
      "stateMutability": "view",
      "type": "function"
    },
    {
      "inputs": [
        {
          "internalType": "uint256",
          "name": "tokenId",
          "type": "uint256"
        }
      ],
      "name": "ownerOf",
      "outputs": [
        {
          "internalType": "address",
          "name": "",
          "type": "address"
        }
      ],
      "stateMutability": "view",
      "type": "function"
    },
    {
      "inputs": [
        {
          "internalType": "uint256",
          "name": "parentId",
          "type": "uint256"
        },
        {
          "internalType": "uint256",
          "name": "index",
          "type": "uint256"
        }
      ],
      "name": "pendingChildOf",
      "outputs": [
        {
          "components": [
            {
              "internalType": "uint256",
              "name": "tokenId",
              "type": "uint256"
            },
            {
              "internalType": "address",
              "name": "contractAddress",
              "type": "address"
            }
          ],
          "internalType": "struct IRMRKNestable.Child",
          "name": "",
          "type": "tuple"
        }
      ],
      "stateMutability": "view",
      "type": "function"
    },
    {
      "inputs": [
        {
          "internalType": "uint256",
          "name": "parentId",
          "type": "uint256"
        }
      ],
      "name": "pendingChildrenOf",
      "outputs": [
        {
          "components": [
            {
              "internalType": "uint256",
              "name": "tokenId",
              "type": "uint256"
            },
            {
              "internalType": "address",
              "name": "contractAddress",
              "type": "address"
            }
          ],
          "internalType": "struct IRMRKNestable.Child[]",
          "name": "",
          "type": "tuple[]"
        }
      ],
      "stateMutability": "view",
      "type": "function"
    },
    {
      "inputs": [],
      "name": "pricePerMint",
      "outputs": [
        {
          "internalType": "uint256",
          "name": "",
          "type": "uint256"
        }
      ],
      "stateMutability": "view",
      "type": "function"
    },
    {
      "inputs": [
        {
          "internalType": "uint256",
          "name": "tokenId",
          "type": "uint256"
        },
        {
          "internalType": "uint256",
          "name": "maxRejections",
          "type": "uint256"
        }
      ],
      "name": "rejectAllChildren",
      "outputs": [],
      "stateMutability": "nonpayable",
      "type": "function"
    },
    {
      "inputs": [],
      "name": "renounceOwnership",
      "outputs": [],
      "stateMutability": "nonpayable",
      "type": "function"
    },
    {
      "inputs": [
        {
          "internalType": "uint256",
          "name": "tokenId",
          "type": "uint256"
        },
        {
          "internalType": "uint256",
          "name": "salePrice",
          "type": "uint256"
        }
      ],
      "name": "royaltyInfo",
      "outputs": [
        {
          "internalType": "address",
          "name": "receiver",
          "type": "address"
        },
        {
          "internalType": "uint256",
          "name": "royaltyAmount",
          "type": "uint256"
        }
      ],
      "stateMutability": "view",
      "type": "function"
    },
    {
      "inputs": [
        {
          "internalType": "address",
          "name": "from",
          "type": "address"
        },
        {
          "internalType": "address",
          "name": "to",
          "type": "address"
        },
        {
          "internalType": "uint256",
          "name": "tokenId",
          "type": "uint256"
        }
      ],
      "name": "safeTransferFrom",
      "outputs": [],
      "stateMutability": "nonpayable",
      "type": "function"
    },
    {
      "inputs": [
        {
          "internalType": "address",
          "name": "from",
          "type": "address"
        },
        {
          "internalType": "address",
          "name": "to",
          "type": "address"
        },
        {
          "internalType": "uint256",
          "name": "tokenId",
          "type": "uint256"
        },
        {
          "internalType": "bytes",
          "name": "data",
          "type": "bytes"
        }
      ],
      "name": "safeTransferFrom",
      "outputs": [],
      "stateMutability": "nonpayable",
      "type": "function"
    },
    {
      "inputs": [
        {
          "internalType": "address",
          "name": "operator",
          "type": "address"
        },
        {
          "internalType": "bool",
          "name": "approved",
          "type": "bool"
        }
      ],
      "name": "setApprovalForAll",
      "outputs": [],
      "stateMutability": "nonpayable",
      "type": "function"
    },
    {
      "inputs": [],
      "name": "setLock",
      "outputs": [],
      "stateMutability": "nonpayable",
      "type": "function"
    },
    {
      "inputs": [
        {
          "internalType": "bytes4",
          "name": "interfaceId",
          "type": "bytes4"
        }
      ],
      "name": "supportsInterface",
      "outputs": [
        {
          "internalType": "bool",
          "name": "",
          "type": "bool"
        }
      ],
      "stateMutability": "view",
      "type": "function"
    },
    {
      "inputs": [],
      "name": "symbol",
      "outputs": [
        {
          "internalType": "string",
          "name": "",
          "type": "string"
        }
      ],
      "stateMutability": "view",
      "type": "function"
    },
    {
      "inputs": [
        {
          "internalType": "uint256",
          "name": "tokenId",
          "type": "uint256"
        }
      ],
      "name": "tokenURI",
      "outputs": [
        {
          "internalType": "string",
          "name": "",
          "type": "string"
        }
      ],
      "stateMutability": "view",
      "type": "function"
    },
    {
      "inputs": [],
      "name": "totalSupply",
      "outputs": [
        {
          "internalType": "uint256",
          "name": "",
          "type": "uint256"
        }
      ],
      "stateMutability": "view",
      "type": "function"
    },
    {
      "inputs": [
        {
          "internalType": "uint256",
          "name": "tokenId",
          "type": "uint256"
        },
        {
          "internalType": "address",
          "name": "to",
          "type": "address"
        },
        {
          "internalType": "uint256",
          "name": "destinationId",
          "type": "uint256"
        },
        {
          "internalType": "uint256",
          "name": "childIndex",
          "type": "uint256"
        },
        {
          "internalType": "address",
          "name": "childAddress",
          "type": "address"
        },
        {
          "internalType": "uint256",
          "name": "childId",
          "type": "uint256"
        },
        {
          "internalType": "bool",
          "name": "isPending",
          "type": "bool"
        },
        {
          "internalType": "bytes",
          "name": "data",
          "type": "bytes"
        }
      ],
      "name": "transferChild",
      "outputs": [],
      "stateMutability": "nonpayable",
      "type": "function"
    },
    {
      "inputs": [
        {
          "internalType": "address",
          "name": "from",
          "type": "address"
        },
        {
          "internalType": "address",
          "name": "to",
          "type": "address"
        },
        {
          "internalType": "uint256",
          "name": "tokenId",
          "type": "uint256"
        }
      ],
      "name": "transferFrom",
      "outputs": [],
      "stateMutability": "nonpayable",
      "type": "function"
    },
    {
      "inputs": [
        {
          "internalType": "address",
          "name": "newOwner",
          "type": "address"
        }
      ],
      "name": "transferOwnership",
      "outputs": [],
      "stateMutability": "nonpayable",
      "type": "function"
    },
    {
      "inputs": [
        {
          "internalType": "address",
          "name": "newRoyaltyRecipient",
          "type": "address"
        }
      ],
      "name": "updateRoyaltyRecipient",
      "outputs": [],
      "stateMutability": "nonpayable",
      "type": "function"
    },
    {
      "inputs": [
        {
          "internalType": "address",
          "name": "to",
          "type": "address"
        },
        {
          "internalType": "uint256",
          "name": "amount",
          "type": "uint256"
        }
      ],
      "name": "withdrawRaised",
      "outputs": [],
      "stateMutability": "nonpayable",
      "type": "function"
    }
  ],
  "bytecode": "0x60a06040523480156200001157600080fd5b50604051620068c5380380620068c583398181016040528101906200003791906200056b565b6040518060400160405280600d81526020017f50726f6a6563744f7261636c65000000000000000000000000000000000000008152506040518060400160405280600481526020017f506f6c65000000000000000000000000000000000000000000000000000000008152506040518060a001604052806070815260200162006855607091396040518060a0016040528060648152602001620067f16064913984848481818585602001518660400151876060015161ffff168a89608001518a60a001516200011b6200010f620001a060201b60201c565b620001a860201b60201c565b81600481905550806080818152505050506200013d816200026c60201b60201c565b506200014f826200028160201b60201c565b8060078190555050506200016a8282620002c560201b60201c565b505081600a90816200017d9190620007de565b5080600b90816200018f9190620007de565b5050505050505050505050620008c5565b600033905090565b60008060009054906101000a900473ffffffffffffffffffffffffffffffffffffffff169050816000806101000a81548173ffffffffffffffffffffffffffffffffffffffff021916908373ffffffffffffffffffffffffffffffffffffffff1602179055508173ffffffffffffffffffffffffffffffffffffffff168173ffffffffffffffffffffffffffffffffffffffff167f8be0079c531659141344cd1fd0a4f28419497f9722a3daafe3b4186f6b6457e060405160405180910390a35050565b80600590816200027d9190620007de565b5050565b80600660006101000a81548173ffffffffffffffffffffffffffffffffffffffff021916908373ffffffffffffffffffffffffffffffffffffffff16021790555050565b8160089081620002d69190620007de565b5080620002e5576000620002e8565b60015b60ff166009819055505050565b6000604051905090565b600080fd5b600080fd5b6000601f19601f8301169050919050565b7f4e487b7100000000000000000000000000000000000000000000000000000000600052604160045260246000fd5b620003548262000309565b810181811067ffffffffffffffff821117156200037657620003756200031a565b5b80604052505050565b60006200038b620002f5565b905062000399828262000349565b919050565b600073ffffffffffffffffffffffffffffffffffffffff82169050919050565b6000620003cb826200039e565b9050919050565b620003dd81620003be565b8114620003e957600080fd5b50565b600081519050620003fd81620003d2565b92915050565b60008115159050919050565b6200041a8162000403565b81146200042657600080fd5b50565b6000815190506200043a816200040f565b92915050565b600061ffff82169050919050565b620004598162000440565b81146200046557600080fd5b50565b60008151905062000479816200044e565b92915050565b6000819050919050565b62000494816200047f565b8114620004a057600080fd5b50565b600081519050620004b48162000489565b92915050565b600060c08284031215620004d357620004d262000304565b5b620004df60c06200037f565b90506000620004f184828501620003ec565b6000830152506020620005078482850162000429565b60208301525060406200051d84828501620003ec565b6040830152506060620005338482850162000468565b60608301525060806200054984828501620004a3565b60808301525060a06200055f84828501620004a3565b60a08301525092915050565b600060c08284031215620005845762000583620002ff565b5b60006200059484828501620004ba565b91505092915050565b600081519050919050565b7f4e487b7100000000000000000000000000000000000000000000000000000000600052602260045260246000fd5b60006002820490506001821680620005f057607f821691505b602082108103620006065762000605620005a8565b5b50919050565b60008190508160005260206000209050919050565b60006020601f8301049050919050565b600082821b905092915050565b600060088302620006707fffffffffffffffffffffffffffffffffffffffffffffffffffffffffffffffff8262000631565b6200067c868362000631565b95508019841693508086168417925050509392505050565b6000819050919050565b6000620006bf620006b9620006b3846200047f565b62000694565b6200047f565b9050919050565b6000819050919050565b620006db836200069e565b620006f3620006ea82620006c6565b8484546200063e565b825550505050565b600090565b6200070a620006fb565b62000717818484620006d0565b505050565b5b818110156200073f576200073360008262000700565b6001810190506200071d565b5050565b601f8211156200078e5762000758816200060c565b620007638462000621565b8101602085101562000773578190505b6200078b620007828562000621565b8301826200071c565b50505b505050565b600082821c905092915050565b6000620007b36000198460080262000793565b1980831691505092915050565b6000620007ce8383620007a0565b9150826002028217905092915050565b620007e9826200059d565b67ffffffffffffffff8111156200080557620008046200031a565b5b620008118254620005d7565b6200081e82828562000743565b600060209050601f83116001811462000856576000841562000841578287015190505b6200084d8582620007c0565b865550620008bd565b601f19841662000866866200060c565b60005b82811015620008905784890151825560018201915060208501945060208101905062000869565b86831015620008b05784890151620008ac601f891682620007a0565b8355505b6001600288020188555050505b505050505050565b608051615f09620008e860003960008181611d760152612b750152615f096000f3fe60806040526004361061027d5760003560e01c8063715018a61161014f578063b390c0ab116100c1578063e8a3d4851161007a578063e8a3d485146109e7578063e97ceaa814610a12578063e985e9c514610a3b578063f2fde38b14610a78578063fb25fb7a14610aa1578063ffa1ad7414610ae05761027d565b8063b390c0ab146108c5578063b88d4fde14610902578063c5610a291461092b578063c87b56dd14610956578063d5abeb0114610993578063defa80c3146109be5761027d565b80638da5cb5b116101135780638da5cb5b146107b557806395d89b41146107e057806395edc18c1461080b5780639796133614610836578063a22cb4651461085f578063a898e364146108885761027d565b8063715018a61461070857806379e8ca9e1461071f5780637aba6f37146107485780637e5852d91461075f57806389ed2edf1461078a5761027d565b806333ed2845116101f3578063504ac573116101ac578063504ac573146105bf57806359c8b7dd146105fd5780636352211e14610628578063635490cc146106655780636f19951c1461068e57806370a08231146106cb5761027d565b806333ed2845146104ae57806340c10f19146104d75780634182e4a3146104f357806342842e0e1461053057806342966c681461055957806344ec9344146105825761027d565b80630fc499f5116102455780630fc499f51461037957806318160ddd146103a25780631d0d35f5146103cd57806323b872dd1461040a5780632a55205a146104335780632f32f937146104715761027d565b806301ffc9a714610282578063064c0a3a146102bf57806306fdde03146102e8578063081812fc14610313578063095ea7b314610350575b600080fd5b34801561028e57600080fd5b506102a960048036038101906102a49190614b9f565b610b0b565b6040516102b69190614be7565b60405180910390f35b3480156102cb57600080fd5b506102e660048036038101906102e19190614ddc565b610cad565b005b3480156102f457600080fd5b506102fd610ccc565b60405161030a9190614ef2565b60405180910390f35b34801561031f57600080fd5b5061033a60048036038101906103359190614f14565b610d5e565b6040516103479190614f50565b60405180910390f35b34801561035c57600080fd5b5061037760048036038101906103729190614f6b565b610de9565b005b34801561038557600080fd5b506103a0600480360381019061039b9190614fab565b610ef2565b005b3480156103ae57600080fd5b506103b7610f06565b6040516103c49190614fe7565b60405180910390f35b3480156103d957600080fd5b506103f460048036038101906103ef9190614fab565b610f10565b6040516104019190614be7565b60405180910390f35b34801561041657600080fd5b50610431600480360381019061042c9190615002565b610f5b565b005b34801561043f57600080fd5b5061045a60048036038101906104559190615055565b610f86565b604051610468929190615095565b60405180910390f35b34801561047d57600080fd5b5061049860048036038101906104939190615055565b610fd2565b6040516104a5919061510b565b60405180910390f35b3480156104ba57600080fd5b506104d560048036038101906104d09190614f6b565b6110c8565b005b6104f160048036038101906104ec9190614f6b565b6110de565b005b3480156104ff57600080fd5b5061051a60048036038101906105159190614f6b565b611130565b6040516105279190614be7565b60405180910390f35b34801561053c57600080fd5b5061055760048036038101906105529190615002565b61118e565b005b34801561056557600080fd5b50610580600480360381019061057b9190614f14565b6111ae565b005b34801561058e57600080fd5b506105a960048036038101906105a49190614f14565b6111bd565b6040516105b69190615204565b60405180910390f35b3480156105cb57600080fd5b506105e660048036038101906105e19190614f6b565b611295565b6040516105f4929190615226565b60405180910390f35b34801561060957600080fd5b50610612611390565b60405161061f9190614fe7565b60405180910390f35b34801561063457600080fd5b5061064f600480360381019061064a9190614f14565b61139a565b60405161065c9190614f50565b60405180910390f35b34801561067157600080fd5b5061068c60048036038101906106879190615256565b61143d565b005b34801561069a57600080fd5b506106b560048036038101906106b09190614f14565b611624565b6040516106c29190615204565b60405180910390f35b3480156106d757600080fd5b506106f260048036038101906106ed9190614fab565b6116fc565b6040516106ff9190614fe7565b60405180910390f35b34801561071457600080fd5b5061071d6117aa565b005b34801561072b57600080fd5b50610746600480360381019061074191906152f1565b6117be565b005b34801561075457600080fd5b5061075d611911565b005b34801561076b57600080fd5b5061077461192c565b6040516107819190614be7565b60405180910390f35b34801561079657600080fd5b5061079f611939565b6040516107ac9190614ef2565b60405180910390f35b3480156107c157600080fd5b506107ca6119cb565b6040516107d79190614f50565b60405180910390f35b3480156107ec57600080fd5b506107f56119f4565b6040516108029190614ef2565b60405180910390f35b34801561081757600080fd5b50610820611a86565b60405161082d9190614f50565b60405180910390f35b34801561084257600080fd5b5061085d60048036038101906108589190615055565b611ab0565b005b34801561086b57600080fd5b50610886600480360381019061088191906152f1565b611ac9565b005b34801561089457600080fd5b506108af60048036038101906108aa9190615055565b611c40565b6040516108bc919061510b565b60405180910390f35b3480156108d157600080fd5b506108ec60048036038101906108e79190615055565b611d36565b6040516108f99190614fe7565b60405180910390f35b34801561090e57600080fd5b5061092960048036038101906109249190615331565b611d55565b005b34801561093757600080fd5b50610940611d72565b60405161094d9190614fe7565b60405180910390f35b34801561096257600080fd5b5061097d60048036038101906109789190614f14565b611d9a565b60405161098a9190614ef2565b60405180910390f35b34801561099f57600080fd5b506109a8611e69565b6040516109b59190614fe7565b60405180910390f35b3480156109ca57600080fd5b506109e560048036038101906109e091906153b4565b611e73565b005b3480156109f357600080fd5b506109fc611e98565b604051610a099190614ef2565b60405180910390f35b348015610a1e57600080fd5b50610a396004803603810190610a349190615486565b611f13565b005b348015610a4757600080fd5b50610a626004803603810190610a5d91906154ed565b611f30565b604051610a6f9190614be7565b60405180910390f35b348015610a8457600080fd5b50610a9f6004803603810190610a9a9190614fab565b611fc4565b005b348015610aad57600080fd5b50610ac86004803603810190610ac39190614f14565b61203e565b604051610ad79392919061552d565b60405180910390f35b348015610aec57600080fd5b50610af5612166565b604051610b029190614ef2565b60405180910390f35b60007f01ffc9a7000000000000000000000000000000000000000000000000000000007bffffffffffffffffffffffffffffffffffffffffffffffffffffffff1916827bffffffffffffffffffffffffffffffffffffffffffffffffffffffff19161480610bd657507f80ac58cd000000000000000000000000000000000000000000000000000000007bffffffffffffffffffffffffffffffffffffffffffffffffffffffff1916827bffffffffffffffffffffffffffffffffffffffffffffffffffffffff1916145b80610c3e57507f5b5e139f000000000000000000000000000000000000000000000000000000007bffffffffffffffffffffffffffffffffffffffffffffffffffffffff1916827bffffffffffffffffffffffffffffffffffffffffffffffffffffffff1916145b80610ca657507f42b0e56f000000000000000000000000000000000000000000000000000000007bffffffffffffffffffffffffffffffffffffffffffffffffffffffff1916827bffffffffffffffffffffffffffffffffffffffffffffffffffffffff1916145b9050919050565b82610cb78161219f565b610cc486868686866121e9565b505050505050565b6060600a8054610cdb90615593565b80601f0160208091040260200160405190810160405280929190818152602001828054610d0790615593565b8015610d545780601f10610d2957610100808354040283529160200191610d54565b820191906000526020600020905b815481529060010190602001808311610d3757829003601f168201915b5050505050905090565b6000610d6982612551565b600d60008381526020019081526020016000206000610d878461139a565b73ffffffffffffffffffffffffffffffffffffffff1673ffffffffffffffffffffffffffffffffffffffff16815260200190815260200160002060009054906101000a900473ffffffffffffffffffffffffffffffffffffffff169050919050565b6000610df48261139a565b90508073ffffffffffffffffffffffffffffffffffffffff168373ffffffffffffffffffffffffffffffffffffffff1603610e5b576040517f0591db6d00000000000000000000000000000000000000000000000000000000815260040160405180910390fd5b8073ffffffffffffffffffffffffffffffffffffffff16610e7a612593565b73ffffffffffffffffffffffffffffffffffffffff1614158015610eac5750610eaa81610ea5612593565b611f30565b155b15610ee3576040517f982462b200000000000000000000000000000000000000000000000000000000815260040160405180910390fd5b610eed838361259b565b505050565b610efa612697565b610f038161270c565b50565b6000600354905090565b600060018060008473ffffffffffffffffffffffffffffffffffffffff1673ffffffffffffffffffffffffffffffffffffffff16815260200190815260200160002054149050919050565b80610f658161219f565b610f8084848460405180602001604052806000815250612750565b50505050565b600080600660009054906101000a900473ffffffffffffffffffffffffffffffffffffffff16915061271060075484610fbf91906155f3565b610fc99190615664565b90509250929050565b610fda614a99565b81610fe484611624565b511161101c576040517fca7cc84a00000000000000000000000000000000000000000000000000000000815260040160405180910390fd5b600060126000858152602001908152602001600020838154811061104357611042615695565b5b9060005260206000209060020201604051806040016040529081600082015481526020016001820160009054906101000a900473ffffffffffffffffffffffffffffffffffffffff1673ffffffffffffffffffffffffffffffffffffffff1673ffffffffffffffffffffffffffffffffffffffff168152505090508091505092915050565b6110d0612697565b6110da82826129fc565b5050565b6110e6612aad565b6000806110f283612aeb565b9150915060008290505b818110156111295761111e858260405180602001604052806000815250612bee565b8060010190506110fc565b5050505050565b600080601460008573ffffffffffffffffffffffffffffffffffffffff1673ffffffffffffffffffffffffffffffffffffffff1681526020019081526020016000206000848152602001908152602001600020541415905092915050565b6111a983838360405180602001604052806000815250611d55565b505050565b6111b9816000611d36565b5050565b6060600060136000848152602001908152602001600020805480602002602001604051908101604052809291908181526020016000905b828210156112865783829060005260206000209060020201604051806040016040529081600082015481526020016001820160009054906101000a900473ffffffffffffffffffffffffffffffffffffffff1673ffffffffffffffffffffffffffffffffffffffff1673ffffffffffffffffffffffffffffffffffffffff1681525050815260200190600101906111f4565b50505050905080915050919050565b60006060600073ffffffffffffffffffffffffffffffffffffffff168473ffffffffffffffffffffffffffffffffffffffff16036112d257600080fd5b600f60008573ffffffffffffffffffffffffffffffffffffffff1673ffffffffffffffffffffffffffffffffffffffff16815260200190815260200160002080549050831061132057600080fd5b600f60008573ffffffffffffffffffffffffffffffffffffffff1673ffffffffffffffffffffffffffffffffffffffff168152602001908152602001600020838154811061137157611370615695565b5b9060005260206000200154915061138782611d9a565b90509250929050565b6000600754905090565b6000806000806113a98561203e565b9250925092508015611432578273ffffffffffffffffffffffffffffffffffffffff16636352211e836040518263ffffffff1660e01b81526004016113ee9190614fe7565b602060405180830381865afa15801561140b573d6000803e3d6000fd5b505050506040513d601f19601f8201168201806040525081019061142f91906156d9565b92505b829350505050919050565b61144683612551565b6000611450612593565b90506114718173ffffffffffffffffffffffffffffffffffffffff16612c41565b6114a7576040517fb9d3114700000000000000000000000000000000000000000000000000000000815260040160405180910390fd5b600060405180604001604052808581526020018373ffffffffffffffffffffffffffffffffffffffff1681525090506114e285838686612c64565b60006114ed866111bd565b519050608081101561158e57601360008781526020019081526020016000208290806001815401808255809150506001900390600052602060002090600202016000909190919091506000820151816000015560208201518160010160006101000a81548173ffffffffffffffffffffffffffffffffffffffff021916908373ffffffffffffffffffffffffffffffffffffffff16021790555050506115c0565b6040517fa53c8c0500000000000000000000000000000000000000000000000000000000815260040160405180910390fd5b848373ffffffffffffffffffffffffffffffffffffffff16877fe65085e689b77b126ba0bac3b079aa8288f19f4d5445af11c76003f8ab3075dd846040516116089190614fe7565b60405180910390a461161c86848787612c6a565b505050505050565b6060600060126000848152602001908152602001600020805480602002602001604051908101604052809291908181526020016000905b828210156116ed5783829060005260206000209060020201604051806040016040529081600082015481526020016001820160009054906101000a900473ffffffffffffffffffffffffffffffffffffffff1673ffffffffffffffffffffffffffffffffffffffff1673ffffffffffffffffffffffffffffffffffffffff16815250508152602001906001019061165b565b50505050905080915050919050565b60008073ffffffffffffffffffffffffffffffffffffffff168273ffffffffffffffffffffffffffffffffffffffff1603611763576040517f7772286600000000000000000000000000000000000000000000000000000000815260040160405180910390fd5b600c60008373ffffffffffffffffffffffffffffffffffffffff1673ffffffffffffffffffffffffffffffffffffffff168152602001908152602001600020549050919050565b6117b2612697565b6117bc6000612c70565b565b6117c6612697565b600073ffffffffffffffffffffffffffffffffffffffff168273ffffffffffffffffffffffffffffffffffffffff160361182c576040517fb5c0938000000000000000000000000000000000000000000000000000000000815260040160405180910390fd5b8061187a576000600160008473ffffffffffffffffffffffffffffffffffffffff1673ffffffffffffffffffffffffffffffffffffffff1681526020019081526020016000208190556118be565b60018060008473ffffffffffffffffffffffffffffffffffffffff1673ffffffffffffffffffffffffffffffffffffffff1681526020019081526020016000208190555b508173ffffffffffffffffffffffffffffffffffffffff167f4b5657e84cf8a17ac5587bbeb3cc2bab9826c4c67b8bad81b4849de49d37aac2826040516119059190614be7565b60405180910390a25050565b611919612697565b611921612d34565b600354600481905550565b6000600160025414905090565b60606005805461194890615593565b80601f016020809104026020016040519081016040528092919081815260200182805461197490615593565b80156119c15780601f10611996576101008083540402835291602001916119c1565b820191906000526020600020905b8154815290600101906020018083116119a457829003601f168201915b5050505050905090565b60008060009054906101000a900473ffffffffffffffffffffffffffffffffffffffff16905090565b6060600b8054611a0390615593565b80601f0160208091040260200160405190810160405280929190818152602001828054611a2f90615593565b8015611a7c5780601f10611a5157610100808354040283529160200191611a7c565b820191906000526020600020905b815481529060010190602001808311611a5f57829003601f168201915b5050505050905090565b6000600660009054906101000a900473ffffffffffffffffffffffffffffffffffffffff16905090565b81611aba81612d46565b611ac48383612d90565b505050565b8173ffffffffffffffffffffffffffffffffffffffff16611ae8612593565b73ffffffffffffffffffffffffffffffffffffffff1603611b35576040517f2dee66e400000000000000000000000000000000000000000000000000000000815260040160405180910390fd5b80600e6000611b42612593565b73ffffffffffffffffffffffffffffffffffffffff1673ffffffffffffffffffffffffffffffffffffffff16815260200190815260200160002060008473ffffffffffffffffffffffffffffffffffffffff1673ffffffffffffffffffffffffffffffffffffffff16815260200190815260200160002060006101000a81548160ff0219169083151502179055508173ffffffffffffffffffffffffffffffffffffffff16611bef612593565b73ffffffffffffffffffffffffffffffffffffffff167f17307eab39ab6107e8899845ad3d59bd9653f200f220920489ca2b5937696c3183604051611c349190614be7565b60405180910390a35050565b611c48614a99565b81611c52846111bd565b5111611c8a576040517fda22687f00000000000000000000000000000000000000000000000000000000815260040160405180910390fd5b6000601360008581526020019081526020016000208381548110611cb157611cb0615695565b5b9060005260206000209060020201604051806040016040529081600082015481526020016001820160009054906101000a900473ffffffffffffffffffffffffffffffffffffffff1673ffffffffffffffffffffffffffffffffffffffff1673ffffffffffffffffffffffffffffffffffffffff168152505090508091505092915050565b600082611d428161219f565b611d4c8484612e42565b91505092915050565b81611d5f8161219f565b611d6b85858585613326565b5050505050565b60007f0000000000000000000000000000000000000000000000000000000000000000905090565b6060600060095414611dd6576008611db18361337a565b604051602001611dc2929190615826565b604051602081830303815290604052611e62565b60088054611de390615593565b80601f0160208091040260200160405190810160405280929190818152602001828054611e0f90615593565b8015611e5c5780601f10611e3157610100808354040283529160200191611e5c565b820191906000526020600020905b815481529060010190602001808311611e3f57829003601f168201915b50505050505b9050919050565b6000600454905090565b87611e7d81612d46565b611e8d8989898989898989613448565b505050505050505050565b60603073ffffffffffffffffffffffffffffffffffffffff166389ed2edf6040518163ffffffff1660e01b8152600401600060405180830381865afa158015611ee5573d6000803e3d6000fd5b505050506040513d6000823e3d601f19601f82011682018060405250810190611f0e91906158f6565b905090565b83611f1d81612d46565b611f29858585856136f0565b5050505050565b6000600e60008473ffffffffffffffffffffffffffffffffffffffff1673ffffffffffffffffffffffffffffffffffffffff16815260200190815260200160002060008373ffffffffffffffffffffffffffffffffffffffff1673ffffffffffffffffffffffffffffffffffffffff16815260200190815260200160002060009054906101000a900460ff16905092915050565b611fcc612697565b600073ffffffffffffffffffffffffffffffffffffffff168173ffffffffffffffffffffffffffffffffffffffff1603612032576040517f4ece6ecf00000000000000000000000000000000000000000000000000000000815260040160405180910390fd5b61203b81612c70565b50565b60008060008060116000868152602001908152602001600020604051806060016040529081600082015481526020016001820160009054906101000a900473ffffffffffffffffffffffffffffffffffffffff1673ffffffffffffffffffffffffffffffffffffffff1673ffffffffffffffffffffffffffffffffffffffff1681526020016001820160149054906101000a900460ff1615151515815250509050600073ffffffffffffffffffffffffffffffffffffffff16816020015173ffffffffffffffffffffffffffffffffffffffff1603612149576040517f89ba7e1000000000000000000000000000000000000000000000000000000000815260040160405180910390fd5b806020015181600001518260400151935093509350509193909250565b6040518060400160405280600681526020017f302e32362e30000000000000000000000000000000000000000000000000000081525081565b6121b06121aa612593565b82613904565b6121e6576040517f8be7930600000000000000000000000000000000000000000000000000000000815260040160405180910390fd5b50565b6000806121f58561203e565b50915091508673ffffffffffffffffffffffffffffffffffffffff168273ffffffffffffffffffffffffffffffffffffffff161461225f576040517fe146af6f00000000000000000000000000000000000000000000000000000000815260040160405180910390fd5b600073ffffffffffffffffffffffffffffffffffffffff168673ffffffffffffffffffffffffffffffffffffffff16036122c5576040517fe3d91bfc00000000000000000000000000000000000000000000000000000000815260040160405180910390fd5b3073ffffffffffffffffffffffffffffffffffffffff168673ffffffffffffffffffffffffffffffffffffffff161480156122ff57508385145b15612336576040517f3d76b10700000000000000000000000000000000000000000000000000000000815260040160405180910390fd5b6123558673ffffffffffffffffffffffffffffffffffffffff16612c41565b61238b576040517fb9d3114700000000000000000000000000000000000000000000000000000000815260040160405180910390fd5b8573ffffffffffffffffffffffffffffffffffffffff166301ffc9a77f42b0e56f000000000000000000000000000000000000000000000000000000006040518263ffffffff1660e01b81526004016123e4919061594e565b602060405180830381865afa158015612401573d6000803e3d6000fd5b505050506040513d601f19601f82011682018060405250810190612425919061597e565b61245b576040517f5e13b1cc00000000000000000000000000000000000000000000000000000000815260040160405180910390fd5b6124668587866139e0565b612471878787613b3c565b61247f828783878988613b41565b6001600c60008973ffffffffffffffffffffffffffffffffffffffff1673ffffffffffffffffffffffffffffffffffffffff16815260200190815260200160002060008282546124cf91906159ab565b925050819055506124e38585886001613b49565b6001600c60008873ffffffffffffffffffffffffffffffffffffffff1673ffffffffffffffffffffffffffffffffffffffff168152602001908152602001600020600082825461253391906159df565b92505081905550612548828783878988613c1d565b50505050505050565b61255a81613d76565b612590576040517f89ba7e1000000000000000000000000000000000000000000000000000000000815260040160405180910390fd5b50565b600033905090565b60006125a68261139a565b905082600d600084815260200190815260200160002060008373ffffffffffffffffffffffffffffffffffffffff1673ffffffffffffffffffffffffffffffffffffffff16815260200190815260200160002060006101000a81548173ffffffffffffffffffffffffffffffffffffffff021916908373ffffffffffffffffffffffffffffffffffffffff160217905550818373ffffffffffffffffffffffffffffffffffffffff168273ffffffffffffffffffffffffffffffffffffffff167f8c5be1e5ebec7d5bd14f71427d1e84f3dd0314c0f7b2291e5b200ac8c7c3b92560405160405180910390a4505050565b61269f612593565b73ffffffffffffffffffffffffffffffffffffffff166126bd6119cb565b73ffffffffffffffffffffffffffffffffffffffff161461270a576040517f38c5ab1e00000000000000000000000000000000000000000000000000000000815260040160405180910390fd5b565b80600660006101000a81548173ffffffffffffffffffffffffffffffffffffffff021916908373ffffffffffffffffffffffffffffffffffffffff16021790555050565b60008061275c8461203e565b50915091508573ffffffffffffffffffffffffffffffffffffffff168273ffffffffffffffffffffffffffffffffffffffff16146127c6576040517fe146af6f00000000000000000000000000000000000000000000000000000000815260040160405180910390fd5b600073ffffffffffffffffffffffffffffffffffffffff168573ffffffffffffffffffffffffffffffffffffffff160361282c576040517fe3d91bfc00000000000000000000000000000000000000000000000000000000815260040160405180910390fd5b612837868686613b3c565b61284682868360008888613b41565b6001600c60008873ffffffffffffffffffffffffffffffffffffffff1673ffffffffffffffffffffffffffffffffffffffff168152602001908152602001600020600082825461289691906159ab565b925050819055506128a78685613de5565b6128b5846000876000613b49565b6128bf85856140c9565b6001600c60008773ffffffffffffffffffffffffffffffffffffffff1673ffffffffffffffffffffffffffffffffffffffff168152602001908152602001600020600082825461290f91906159df565b92505081905550838573ffffffffffffffffffffffffffffffffffffffff168773ffffffffffffffffffffffffffffffffffffffff167fddf252ad1be2c89b69c2b068fc378daa952ba7f163c4a11628f55a4df523b3ef60405160405180910390a4838573ffffffffffffffffffffffffffffffffffffffff168373ffffffffffffffffffffffffffffffffffffffff167f04444026cefd1b05506559cab59d1b865ae3ba4ed2fe5c894f04e522776c552d8460006040516129d2929190615a58565b60405180910390a46129e586868661420e565b6129f482868360008888614213565b505050505050565b60008273ffffffffffffffffffffffffffffffffffffffff1682604051612a2290615ab2565b60006040518083038185875af1925050503d8060008114612a5f576040519150601f19603f3d011682016040523d82523d6000602084013e612a64565b606091505b5050905080612aa8576040517f08c379a0000000000000000000000000000000000000000000000000000000008152600401612a9f90615b13565b60405180910390fd5b505050565b600160025403612ae9576040517fed1fa96f00000000000000000000000000000000000000000000000000000000815260040160405180910390fd5b565b60008060008303612b28576040517f376bec4d00000000000000000000000000000000000000000000000000000000815260040160405180910390fd5b60045460035484612b3991906159df565b1115612b71576040517fbd239bf600000000000000000000000000000000000000000000000000000000815260040160405180910390fd5b60007f000000000000000000000000000000000000000000000000000000000000000084612b9f91906155f3565b9050612baa8161421b565b60006001600354612bbb91906159df565b90508460036000828254019250508190555060006001600354612bde91906159df565b9050818194509450505050915091565b612bf9838383614257565b612c06600084848461434b565b612c3c576040517fbcb5663700000000000000000000000000000000000000000000000000000000815260040160405180910390fd5b505050565b6000808273ffffffffffffffffffffffffffffffffffffffff163b119050919050565b50505050565b50505050565b60008060009054906101000a900473ffffffffffffffffffffffffffffffffffffffff169050816000806101000a81548173ffffffffffffffffffffffffffffffffffffffff021916908373ffffffffffffffffffffffffffffffffffffffff1602179055508173ffffffffffffffffffffffffffffffffffffffff168173ffffffffffffffffffffffffffffffffffffffff167f8be0079c531659141344cd1fd0a4f28419497f9722a3daafe3b4186f6b6457e060405160405180910390a35050565b612d3c612697565b6001600281905550565b612d57612d51612593565b826144c9565b612d8d576040517f2728a9d000000000000000000000000000000000000000000000000000000000815260040160405180910390fd5b50565b8060136000848152602001908152602001600020805490501115612de0576040517f3ce62f1600000000000000000000000000000000000000000000000000000000815260040160405180910390fd5b612de98261455e565b601360008381526020019081526020016000206000612e089190614ac9565b817f8ac4a0d65950c3e40448afb2260e2e0ec36ea15644d9b39e37e85472e5f9445160405160405180910390a2612e3e82614561565b5050565b6000806000612e508561203e565b50915091506000612e608661139a565b90506001600c60008573ffffffffffffffffffffffffffffffffffffffff1673ffffffffffffffffffffffffffffffffffffffff1681526020019081526020016000206000828254612eb291906159ab565b92505081905550612ec581600088613b3c565b612ee48360008460008a60405180602001604052806000815250613b41565b612eef60008761259b565b612ef886614564565b6000612f0387611624565b9050601260008881526020019081526020016000206000612f249190614ac9565b601360008881526020019081526020016000206000612f439190614ac9565b600d600088815260200190815260200160002060008373ffffffffffffffffffffffffffffffffffffffff1673ffffffffffffffffffffffffffffffffffffffff16815260200190815260200160002060006101000a81549073ffffffffffffffffffffffffffffffffffffffff021916905560008060008351905060005b818110156131cb5789831061304c57848181518110612fe457612fe3615695565b5b60200260200101516020015185828151811061300357613002615695565b5b6020026020010151600001516040517f6177b250000000000000000000000000000000000000000000000000000000008152600401613043929190615095565b60405180910390fd5b6014600086838151811061306357613062615695565b5b60200260200101516020015173ffffffffffffffffffffffffffffffffffffffff1673ffffffffffffffffffffffffffffffffffffffff16815260200190815260200160002060008683815181106130be576130bd615695565b5b602002602001015160000151815260200190815260200160002060009055828a03935060018582815181106130f6576130f5615695565b5b60200260200101516020015173ffffffffffffffffffffffffffffffffffffffff1663b390c0ab8784815181106131305761312f615695565b5b60200260200101516000015160018861314991906159ab565b6040518363ffffffff1660e01b8152600401613166929190615b33565b6020604051808303816000875af1158015613185573d6000803e3d6000fd5b505050506040513d601f19601f820116820180604052508101906131a99190615b71565b6131b391906159df565b836131be91906159df565b9250806001019050612fc2565b50601160008b81526020019081526020016000206000808201600090556001820160006101000a81549073ffffffffffffffffffffffffffffffffffffffff02191690556001820160146101000a81549060ff021916905550506132318560008c61420e565b6132508760008860008e60405180602001604052806000815250614213565b89600073ffffffffffffffffffffffffffffffffffffffff168673ffffffffffffffffffffffffffffffffffffffff167fddf252ad1be2c89b69c2b068fc378daa952ba7f163c4a11628f55a4df523b3ef60405160405180910390a489600073ffffffffffffffffffffffffffffffffffffffff168873ffffffffffffffffffffffffffffffffffffffff167f04444026cefd1b05506559cab59d1b865ae3ba4ed2fe5c894f04e522776c552d89600060405161330e929190615a58565b60405180910390a48197505050505050505092915050565b61333284848484612750565b61333e8484848461434b565b613374576040517fbcb5663700000000000000000000000000000000000000000000000000000000815260040160405180910390fd5b50505050565b60606000600161338984614567565b01905060008167ffffffffffffffff8111156133a8576133a7614cb1565b5b6040519080825280601f01601f1916602001820160405280156133da5781602001600182028036833780820191505090505b509050600082602001820190505b60011561343d578080600190039150507f3031323334353637383961626364656600000000000000000000000000000000600a86061a8153600a858161343157613430615635565b5b049450600085036133e8575b819350505050919050565b613450614a99565b8215613467576134608987611c40565b9050613474565b6134718987610fd2565b90505b61347f8186866146ba565b61348d898787878787614739565b82156134b4576134af601360008b815260200190815260200160002087614741565b613525565b601460008673ffffffffffffffffffffffffffffffffffffffff1673ffffffffffffffffffffffffffffffffffffffff168152602001908152602001600020600085815260200190815260200160002060009055613524601260008b815260200190815260200160002087614741565b5b600073ffffffffffffffffffffffffffffffffffffffff168873ffffffffffffffffffffffffffffffffffffffff161461365457600087036135d7578473ffffffffffffffffffffffffffffffffffffffff1663b88d4fde308a87866040518563ffffffff1660e01b81526004016135a09493929190615bf3565b600060405180830381600087803b1580156135ba57600080fd5b505af11580156135ce573d6000803e3d6000fd5b50505050613653565b806020015173ffffffffffffffffffffffffffffffffffffffff1663064c0a3a308a84600001518b876040518663ffffffff1660e01b8152600401613620959493929190615c3f565b600060405180830381600087803b15801561363a57600080fd5b505af115801561364e573d6000803e3d6000fd5b505050505b5b838573ffffffffffffffffffffffffffffffffffffffff168a7f02d6d6dbcb604d5e1e8c7886456e82a9cdce88b0a580071358f206b5a4d58f708987600073ffffffffffffffffffffffffffffffffffffffff168e73ffffffffffffffffffffffffffffffffffffffff16146040516136cf93929190615c99565b60405180910390a46136e5898787878787614864565b505050505050505050565b60006136fc8585611c40565b90506137098184846146ba565b6000601460008573ffffffffffffffffffffffffffffffffffffffff1673ffffffffffffffffffffffffffffffffffffffff16815260200190815260200160002060008481526020019081526020016000205414613793576040517f188a497300000000000000000000000000000000000000000000000000000000815260040160405180910390fd5b61379f8585858561486c565b6137bb6013600087815260200190815260200160002085614741565b601260008681526020019081526020016000208190806001815401808255809150506001900390600052602060002090600202016000909190919091506000820151816000015560208201518160010160006101000a81548173ffffffffffffffffffffffffffffffffffffffff021916908373ffffffffffffffffffffffffffffffffffffffff16021790555050506001601460008573ffffffffffffffffffffffffffffffffffffffff1673ffffffffffffffffffffffffffffffffffffffff168152602001908152602001600020600084815260200190815260200160002081905550818373ffffffffffffffffffffffffffffffffffffffff16867f29486b9e2ae569b440933a9b1b421467306fa21f3dcad439c262910a634963a9876040516138e99190614fe7565b60405180910390a46138fd85858585614872565b5050505050565b60008060006139128461203e565b509150915060008114613957578173ffffffffffffffffffffffffffffffffffffffff168573ffffffffffffffffffffffffffffffffffffffff1614925050506139da565b8173ffffffffffffffffffffffffffffffffffffffff168573ffffffffffffffffffffffffffffffffffffffff16148061399757506139968286611f30565b5b806139d557508473ffffffffffffffffffffffffffffffffffffffff166139bd85610d5e565b73ffffffffffffffffffffffffffffffffffffffff16145b925050505b92915050565b60005b6064811015613b045760008060008573ffffffffffffffffffffffffffffffffffffffff1663fb25fb7a866040518263ffffffff1660e01b8152600401613a2a9190614fe7565b606060405180830381865afa158015613a47573d6000803e3d6000fd5b505050506040513d601f19601f82011682018060405250810190613a6b9190615cd0565b92509250925080613a7f5750505050613b37565b3073ffffffffffffffffffffffffffffffffffffffff168373ffffffffffffffffffffffffffffffffffffffff16148015613ab957508682145b15613af0576040517f48a87cda00000000000000000000000000000000000000000000000000000000815260040160405180910390fd5b8295508194508360010193505050506139e3565b506040517f6934d7a000000000000000000000000000000000000000000000000000000000815260040160405180910390fd5b505050565b505050565b505050505050565b60405180606001604052808481526020018373ffffffffffffffffffffffffffffffffffffffff168152602001821515815250601160008681526020019081526020016000206000820151816000015560208201518160010160006101000a81548173ffffffffffffffffffffffffffffffffffffffff021916908373ffffffffffffffffffffffffffffffffffffffff16021790555060408201518160010160146101000a81548160ff021916908315150217905550905050613c0e60008561259b565b613c1784614564565b50505050565b60008590508073ffffffffffffffffffffffffffffffffffffffff1663635490cc8585856040518463ffffffff1660e01b8152600401613c5f93929190615d23565b600060405180830381600087803b158015613c7957600080fd5b505af1158015613c8d573d6000803e3d6000fd5b50505050613c9c87878561420e565b613caa878787878787614213565b828673ffffffffffffffffffffffffffffffffffffffff168873ffffffffffffffffffffffffffffffffffffffff167fddf252ad1be2c89b69c2b068fc378daa952ba7f163c4a11628f55a4df523b3ef60405160405180910390a4828673ffffffffffffffffffffffffffffffffffffffff168873ffffffffffffffffffffffffffffffffffffffff167f04444026cefd1b05506559cab59d1b865ae3ba4ed2fe5c894f04e522776c552d8888604051613d65929190615b33565b60405180910390a450505050505050565b60008073ffffffffffffffffffffffffffffffffffffffff166011600084815260200190815260200160002060010160009054906101000a900473ffffffffffffffffffffffffffffffffffffffff1673ffffffffffffffffffffffffffffffffffffffff1614159050919050565b600073ffffffffffffffffffffffffffffffffffffffff168273ffffffffffffffffffffffffffffffffffffffff1603613e54576040517f08c379a0000000000000000000000000000000000000000000000000000000008152600401613e4b90615dad565b60405180910390fd5b8173ffffffffffffffffffffffffffffffffffffffff16613e748261139a565b73ffffffffffffffffffffffffffffffffffffffff1614613eca576040517f08c379a0000000000000000000000000000000000000000000000000000000008152600401613ec190615e19565b60405180910390fd5b6000601060008381526020019081526020016000205490506001600f60008573ffffffffffffffffffffffffffffffffffffffff1673ffffffffffffffffffffffffffffffffffffffff16815260200190815260200160002080549050613f3191906159ab565b81146140c4576000600f60008573ffffffffffffffffffffffffffffffffffffffff1673ffffffffffffffffffffffffffffffffffffffff1681526020019081526020016000206001600f60008773ffffffffffffffffffffffffffffffffffffffff1673ffffffffffffffffffffffffffffffffffffffff16815260200190815260200160002080549050613fc791906159ab565b81548110613fd857613fd7615695565b5b9060005260206000200154905080600f60008673ffffffffffffffffffffffffffffffffffffffff1673ffffffffffffffffffffffffffffffffffffffff168152602001908152602001600020838154811061403757614036615695565b5b9060005260206000200181905550816010600083815260200190815260200160002081905550600f60008573ffffffffffffffffffffffffffffffffffffffff1673ffffffffffffffffffffffffffffffffffffffff1681526020019081526020016000208054806140ac576140ab615e39565b5b60019003818190600052602060002001600090559055505b505050565b600073ffffffffffffffffffffffffffffffffffffffff168273ffffffffffffffffffffffffffffffffffffffff1603614138576040517f08c379a000000000000000000000000000000000000000000000000000000000815260040161412f90615dad565b60405180910390fd5b600f60008373ffffffffffffffffffffffffffffffffffffffff1673ffffffffffffffffffffffffffffffffffffffff16815260200190815260200160002081908060018154018082558091505060019003906000526020600020016000909190919091505560006001600f60008573ffffffffffffffffffffffffffffffffffffffff1673ffffffffffffffffffffffffffffffffffffffff168152602001908152602001600020805490506141ef91906159ab565b9050806010600084815260200190815260200160002081905550505050565b505050565b505050505050565b348114614254576040517ff2ffecad00000000000000000000000000000000000000000000000000000000815260040160405180910390fd5b50565b6142648383600084614878565b818373ffffffffffffffffffffffffffffffffffffffff16600073ffffffffffffffffffffffffffffffffffffffff167fddf252ad1be2c89b69c2b068fc378daa952ba7f163c4a11628f55a4df523b3ef60405160405180910390a4818373ffffffffffffffffffffffffffffffffffffffff16600073ffffffffffffffffffffffffffffffffffffffff167f04444026cefd1b05506559cab59d1b865ae3ba4ed2fe5c894f04e522776c552d600080604051614322929190615e68565b60405180910390a46143366000848461420e565b6143466000846000808686614213565b505050565b600061436c8473ffffffffffffffffffffffffffffffffffffffff16612c41565b156144bc578373ffffffffffffffffffffffffffffffffffffffff1663150b7a02614395612593565b8786866040518563ffffffff1660e01b81526004016143b79493929190615bf3565b6020604051808303816000875af19250505080156143f357506040513d601f19601f820116820180604052508101906143f09190615ea6565b60015b61446c573d8060008114614423576040519150601f19603f3d011682016040523d82523d6000602084013e614428565b606091505b506000815103614464576040517fbcb5663700000000000000000000000000000000000000000000000000000000815260040160405180910390fd5b805181602001fd5b63150b7a0260e01b7bffffffffffffffffffffffffffffffffffffffffffffffffffffffff1916817bffffffffffffffffffffffffffffffffffffffffffffffffffffffff1916149150506144c1565b600190505b949350505050565b6000806144d58361139a565b90508073ffffffffffffffffffffffffffffffffffffffff168473ffffffffffffffffffffffffffffffffffffffff16148061451757506145168185611f30565b5b8061455557508373ffffffffffffffffffffffffffffffffffffffff1661453d84610d5e565b73ffffffffffffffffffffffffffffffffffffffff16145b91505092915050565b50565b50565b50565b600080600090507a184f03e93ff9f4daa797ed6e38ed64bf6a1f01000000000000000083106145c5577a184f03e93ff9f4daa797ed6e38ed64bf6a1f01000000000000000083816145bb576145ba615635565b5b0492506040810190505b6d04ee2d6d415b85acef81000000008310614602576d04ee2d6d415b85acef810000000083816145f8576145f7615635565b5b0492506020810190505b662386f26fc10000831061463157662386f26fc10000838161462757614626615635565b5b0492506010810190505b6305f5e100831061465a576305f5e10083816146505761464f615635565b5b0492506008810190505b612710831061467f57612710838161467557614674615635565b5b0492506004810190505b606483106146a2576064838161469857614697615635565b5b0492506002810190505b600a83106146b1576001810190505b80915050919050565b826020015173ffffffffffffffffffffffffffffffffffffffff168273ffffffffffffffffffffffffffffffffffffffff161415806146fd575082600001518114155b15614734576040517fe707e58200000000000000000000000000000000000000000000000000000000815260040160405180910390fd5b505050565b505050505050565b816001838054905061475391906159ab565b8154811061476457614763615695565b5b906000526020600020906002020182828154811061478557614784615695565b5b9060005260206000209060020201600082015481600001556001820160009054906101000a900473ffffffffffffffffffffffffffffffffffffffff168160010160006101000a81548173ffffffffffffffffffffffffffffffffffffffff021916908373ffffffffffffffffffffffffffffffffffffffff1602179055509050508180548061481857614817615e39565b5b60019003818190600052602060002090600202016000808201600090556001820160006101000a81549073ffffffffffffffffffffffffffffffffffffffff0219169055505090555050565b505050505050565b50505050565b50505050565b600073ffffffffffffffffffffffffffffffffffffffff168473ffffffffffffffffffffffffffffffffffffffff16036148de576040517f25bd6bd300000000000000000000000000000000000000000000000000000000815260040160405180910390fd5b6148e783613d76565b1561491e576040517fc5a8d37100000000000000000000000000000000000000000000000000000000815260040160405180910390fd5b60008303614958576040517f12c33ce300000000000000000000000000000000000000000000000000000000815260040160405180910390fd5b61496460008585613b3c565b6149746000856000858786613b41565b6001600c60008673ffffffffffffffffffffffffffffffffffffffff1673ffffffffffffffffffffffffffffffffffffffff16815260200190815260200160002060008282546149c491906159df565b9250508190555060405180606001604052808381526020018573ffffffffffffffffffffffffffffffffffffffff16815260200160008414151515815250601160008581526020019081526020016000206000820151816000015560208201518160010160006101000a81548173ffffffffffffffffffffffffffffffffffffffff021916908373ffffffffffffffffffffffffffffffffffffffff16021790555060408201518160010160146101000a81548160ff021916908315150217905550905050614a9384846140c9565b50505050565b604051806040016040528060008152602001600073ffffffffffffffffffffffffffffffffffffffff1681525090565b5080546000825560020290600052602060002090810190614aea9190614aed565b50565b5b80821115614b2f576000808201600090556001820160006101000a81549073ffffffffffffffffffffffffffffffffffffffff021916905550600201614aee565b5090565b6000604051905090565b600080fd5b600080fd5b60007fffffffff0000000000000000000000000000000000000000000000000000000082169050919050565b614b7c81614b47565b8114614b8757600080fd5b50565b600081359050614b9981614b73565b92915050565b600060208284031215614bb557614bb4614b3d565b5b6000614bc384828501614b8a565b91505092915050565b60008115159050919050565b614be181614bcc565b82525050565b6000602082019050614bfc6000830184614bd8565b92915050565b600073ffffffffffffffffffffffffffffffffffffffff82169050919050565b6000614c2d82614c02565b9050919050565b614c3d81614c22565b8114614c4857600080fd5b50565b600081359050614c5a81614c34565b92915050565b6000819050919050565b614c7381614c60565b8114614c7e57600080fd5b50565b600081359050614c9081614c6a565b92915050565b600080fd5b600080fd5b6000601f19601f8301169050919050565b7f4e487b7100000000000000000000000000000000000000000000000000000000600052604160045260246000fd5b614ce982614ca0565b810181811067ffffffffffffffff82111715614d0857614d07614cb1565b5b80604052505050565b6000614d1b614b33565b9050614d278282614ce0565b919050565b600067ffffffffffffffff821115614d4757614d46614cb1565b5b614d5082614ca0565b9050602081019050919050565b82818337600083830152505050565b6000614d7f614d7a84614d2c565b614d11565b905082815260208101848484011115614d9b57614d9a614c9b565b5b614da6848285614d5d565b509392505050565b600082601f830112614dc357614dc2614c96565b5b8135614dd3848260208601614d6c565b91505092915050565b600080600080600060a08688031215614df857614df7614b3d565b5b6000614e0688828901614c4b565b9550506020614e1788828901614c4b565b9450506040614e2888828901614c81565b9350506060614e3988828901614c81565b925050608086013567ffffffffffffffff811115614e5a57614e59614b42565b5b614e6688828901614dae565b9150509295509295909350565b600081519050919050565b600082825260208201905092915050565b60005b83811015614ead578082015181840152602081019050614e92565b60008484015250505050565b6000614ec482614e73565b614ece8185614e7e565b9350614ede818560208601614e8f565b614ee781614ca0565b840191505092915050565b60006020820190508181036000830152614f0c8184614eb9565b905092915050565b600060208284031215614f2a57614f29614b3d565b5b6000614f3884828501614c81565b91505092915050565b614f4a81614c22565b82525050565b6000602082019050614f656000830184614f41565b92915050565b60008060408385031215614f8257614f81614b3d565b5b6000614f9085828601614c4b565b9250506020614fa185828601614c81565b9150509250929050565b600060208284031215614fc157614fc0614b3d565b5b6000614fcf84828501614c4b565b91505092915050565b614fe181614c60565b82525050565b6000602082019050614ffc6000830184614fd8565b92915050565b60008060006060848603121561501b5761501a614b3d565b5b600061502986828701614c4b565b935050602061503a86828701614c4b565b925050604061504b86828701614c81565b9150509250925092565b6000806040838503121561506c5761506b614b3d565b5b600061507a85828601614c81565b925050602061508b85828601614c81565b9150509250929050565b60006040820190506150aa6000830185614f41565b6150b76020830184614fd8565b9392505050565b6150c781614c60565b82525050565b6150d681614c22565b82525050565b6040820160008201516150f260008501826150be565b50602082015161510560208501826150cd565b50505050565b600060408201905061512060008301846150dc565b92915050565b600081519050919050565b600082825260208201905092915050565b6000819050602082019050919050565b60408201600082015161516860008501826150be565b50602082015161517b60208501826150cd565b50505050565b600061518d8383615152565b60408301905092915050565b6000602082019050919050565b60006151b182615126565b6151bb8185615131565b93506151c683615142565b8060005b838110156151f75781516151de8882615181565b97506151e983615199565b9250506001810190506151ca565b5085935050505092915050565b6000602082019050818103600083015261521e81846151a6565b905092915050565b600060408201905061523b6000830185614fd8565b818103602083015261524d8184614eb9565b90509392505050565b60008060006060848603121561526f5761526e614b3d565b5b600061527d86828701614c81565b935050602061528e86828701614c81565b925050604084013567ffffffffffffffff8111156152af576152ae614b42565b5b6152bb86828701614dae565b9150509250925092565b6152ce81614bcc565b81146152d957600080fd5b50565b6000813590506152eb816152c5565b92915050565b6000806040838503121561530857615307614b3d565b5b600061531685828601614c4b565b9250506020615327858286016152dc565b9150509250929050565b6000806000806080858703121561534b5761534a614b3d565b5b600061535987828801614c4b565b945050602061536a87828801614c4b565b935050604061537b87828801614c81565b925050606085013567ffffffffffffffff81111561539c5761539b614b42565b5b6153a887828801614dae565b91505092959194509250565b600080600080600080600080610100898b0312156153d5576153d4614b3d565b5b60006153e38b828c01614c81565b98505060206153f48b828c01614c4b565b97505060406154058b828c01614c81565b96505060606154168b828c01614c81565b95505060806154278b828c01614c4b565b94505060a06154388b828c01614c81565b93505060c06154498b828c016152dc565b92505060e089013567ffffffffffffffff81111561546a57615469614b42565b5b6154768b828c01614dae565b9150509295985092959890939650565b600080600080608085870312156154a05761549f614b3d565b5b60006154ae87828801614c81565b94505060206154bf87828801614c81565b93505060406154d087828801614c4b565b92505060606154e187828801614c81565b91505092959194509250565b6000806040838503121561550457615503614b3d565b5b600061551285828601614c4b565b925050602061552385828601614c4b565b9150509250929050565b60006060820190506155426000830186614f41565b61554f6020830185614fd8565b61555c6040830184614bd8565b949350505050565b7f4e487b7100000000000000000000000000000000000000000000000000000000600052602260045260246000fd5b600060028204905060018216806155ab57607f821691505b6020821081036155be576155bd615564565b5b50919050565b7f4e487b7100000000000000000000000000000000000000000000000000000000600052601160045260246000fd5b60006155fe82614c60565b915061560983614c60565b925082820261561781614c60565b9150828204841483151761562e5761562d6155c4565b5b5092915050565b7f4e487b7100000000000000000000000000000000000000000000000000000000600052601260045260246000fd5b600061566f82614c60565b915061567a83614c60565b92508261568a57615689615635565b5b828204905092915050565b7f4e487b7100000000000000000000000000000000000000000000000000000000600052603260045260246000fd5b6000815190506156d381614c34565b92915050565b6000602082840312156156ef576156ee614b3d565b5b60006156fd848285016156c4565b91505092915050565b600081905092915050565b60008190508160005260206000209050919050565b6000815461573381615593565b61573d8186615706565b94506001821660008114615758576001811461576d576157a0565b60ff19831686528115158202860193506157a0565b61577685615711565b60005b8381101561579857815481890152600182019150602081019050615779565b838801955050505b50505092915050565b60006157b482614e73565b6157be8185615706565b93506157ce818560208601614e8f565b80840191505092915050565b7f2e706e6700000000000000000000000000000000000000000000000000000000600082015250565b6000615810600483615706565b915061581b826157da565b600482019050919050565b60006158328285615726565b915061583e82846157a9565b915061584982615803565b91508190509392505050565b600067ffffffffffffffff8211156158705761586f614cb1565b5b61587982614ca0565b9050602081019050919050565b600061589961589484615855565b614d11565b9050828152602081018484840111156158b5576158b4614c9b565b5b6158c0848285614e8f565b509392505050565b600082601f8301126158dd576158dc614c96565b5b81516158ed848260208601615886565b91505092915050565b60006020828403121561590c5761590b614b3d565b5b600082015167ffffffffffffffff81111561592a57615929614b42565b5b615936848285016158c8565b91505092915050565b61594881614b47565b82525050565b6000602082019050615963600083018461593f565b92915050565b600081519050615978816152c5565b92915050565b60006020828403121561599457615993614b3d565b5b60006159a284828501615969565b91505092915050565b60006159b682614c60565b91506159c183614c60565b92508282039050818111156159d9576159d86155c4565b5b92915050565b60006159ea82614c60565b91506159f583614c60565b9250828201905080821115615a0d57615a0c6155c4565b5b92915050565b6000819050919050565b6000819050919050565b6000615a42615a3d615a3884615a13565b615a1d565b614c60565b9050919050565b615a5281615a27565b82525050565b6000604082019050615a6d6000830185614fd8565b615a7a6020830184615a49565b9392505050565b600081905092915050565b50565b6000615a9c600083615a81565b9150615aa782615a8c565b600082019050919050565b6000615abd82615a8f565b9150819050919050565b7f5472616e73666572206661696c65642e00000000000000000000000000000000600082015250565b6000615afd601083614e7e565b9150615b0882615ac7565b602082019050919050565b60006020820190508181036000830152615b2c81615af0565b9050919050565b6000604082019050615b486000830185614fd8565b615b556020830184614fd8565b9392505050565b600081519050615b6b81614c6a565b92915050565b600060208284031215615b8757615b86614b3d565b5b6000615b9584828501615b5c565b91505092915050565b600081519050919050565b600082825260208201905092915050565b6000615bc582615b9e565b615bcf8185615ba9565b9350615bdf818560208601614e8f565b615be881614ca0565b840191505092915050565b6000608082019050615c086000830187614f41565b615c156020830186614f41565b615c226040830185614fd8565b8181036060830152615c348184615bba565b905095945050505050565b600060a082019050615c546000830188614f41565b615c616020830187614f41565b615c6e6040830186614fd8565b615c7b6060830185614fd8565b8181036080830152615c8d8184615bba565b90509695505050505050565b6000606082019050615cae6000830186614fd8565b615cbb6020830185614bd8565b615cc86040830184614bd8565b949350505050565b600080600060608486031215615ce957615ce8614b3d565b5b6000615cf7868287016156c4565b9350506020615d0886828701615b5c565b9250506040615d1986828701615969565b9150509250925092565b6000606082019050615d386000830186614fd8565b615d456020830185614fd8565b8181036040830152615d578184615bba565b9050949350505050565b7f4f776e6572206d7573742062652076616c696400000000000000000000000000600082015250565b6000615d97601383614e7e565b9150615da282615d61565b602082019050919050565b60006020820190508181036000830152615dc681615d8a565b9050919050565b7f6e6f7420746865207265616c206f776e65720000000000000000000000000000600082015250565b6000615e03601283614e7e565b9150615e0e82615dcd565b602082019050919050565b60006020820190508181036000830152615e3281615df6565b9050919050565b7f4e487b7100000000000000000000000000000000000000000000000000000000600052603160045260246000fd5b6000604082019050615e7d6000830185615a49565b615e8a6020830184615a49565b9392505050565b600081519050615ea081614b73565b92915050565b600060208284031215615ebc57615ebb614b3d565b5b6000615eca84828501615e91565b9150509291505056fea2646970667358221220eeabddbb73315f2de40fb5ff00d6ded15520e8d8df107f3c737bb031055d26fe64736f6c6343000812003368747470733a2f2f707572706c652d736f6c69642d6c656f706172642d3235362e6d7970696e6174612e636c6f75642f697066732f516d527846774b6f6644613868656276514d585438655538787a636b3335674e396152725937354835656f44697a2f68747470733a2f2f707572706c652d736f6c69642d6c656f706172642d3235362e6d7970696e6174612e636c6f75642f697066732f6261666b726569686e6978327a76736b6b77646b78623269636234336a3432663679666c63356b646f74726d7a646d6b366e6c716d71786a776d61",
  "linkReferences": {},
  "deployedLinkReferences": {}
}