{
  "_format": "hh-sol-artifact-1",
  "contractName": "RMRKMintAndBurnFacet",
  "sourceName": "contracts/impl/facets/RMRKMintAndBurnFacet.sol",
  "abi": [
    {
      "inputs": [],
      "name": "ERC721MintToTheZeroAddress",
      "type": "error"
    },
    {
      "inputs": [],
      "name": "ERC721TokenAlreadyMinted",
      "type": "error"
    },
    {
      "inputs": [],
      "name": "ERC721TransferToNonReceiverImplementer",
      "type": "error"
    },
    {
      "inputs": [],
      "name": "RMRKIdZeroForbidden",
      "type": "error"
    },
    {
      "inputs": [],
      "name": "RMRKMintOverMax",
      "type": "error"
    },
    {
      "inputs": [],
      "name": "RMRKMintUnderpriced",
      "type": "error"
    },
    {
      "inputs": [
        {
          "internalType": "uint256",
          "name": "tokenId",
          "type": "uint256"
        }
      ],
      "name": "burn",
      "outputs": [],
      "stateMutability": "nonpayable",
      "type": "function"
    },
    {
      "inputs": [
        {
          "internalType": "address",
          "name": "to",
          "type": "address"
        }
      ],
      "name": "mint",
      "outputs": [],
      "stateMutability": "payable",
      "type": "function"
    }
  ],
  "bytecode": "0x608060405234801561001057600080fd5b50610f51806100206000396000f3fe6080604052600436106100295760003560e01c806342966c681461002e5780636a62784214610057575b600080fd5b34801561003a57600080fd5b5061005560048036038101906100509190610bdf565b610073565b005b610071600480360381019061006c9190610c6a565b61023e565b005b80600080600c01600083815260200190815260200160002060009054906101000a900473ffffffffffffffffffffffffffffffffffffffff16905060006100b8610269565b90508073ffffffffffffffffffffffffffffffffffffffff168273ffffffffffffffffffffffffffffffffffffffff16148061017d57506000600b0160008373ffffffffffffffffffffffffffffffffffffffff1673ffffffffffffffffffffffffffffffffffffffff16815260200190815260200160002060008273ffffffffffffffffffffffffffffffffffffffff1673ffffffffffffffffffffffffffffffffffffffff16815260200190815260200160002060009054906101000a900460ff165b8061022657508073ffffffffffffffffffffffffffffffffffffffff166000600a01600085815260200190815260200160002060008473ffffffffffffffffffffffffffffffffffffffff1673ffffffffffffffffffffffffffffffffffffffff16815260200190815260200160002060009054906101000a900473ffffffffffffffffffffffffffffffffffffffff1673ffffffffffffffffffffffffffffffffffffffff16145b61022f57600080fd5b61023884610271565b50505050565b60006102498261043e565b9050610265828260405180602001604052806000815250610503565b5050565b600033905090565b600061027c82610556565b905060006102886105a1565b905060018160090160008473ffffffffffffffffffffffffffffffffffffffff1673ffffffffffffffffffffffffffffffffffffffff16815260200190815260200160002060008282546102dc9190610cc6565b925050819055506102ee6000846105a6565b80600d016000848152602001908152602001600020600061030f9190610b3a565b80600e01600084815260200190815260200160002060006103309190610b3a565b80600a01600084815260200190815260200160002060008373ffffffffffffffffffffffffffffffffffffffff1673ffffffffffffffffffffffffffffffffffffffff16815260200190815260200160002060006101000a81549073ffffffffffffffffffffffffffffffffffffffff021916905580600c01600084815260200190815260200160002060006101000a81549073ffffffffffffffffffffffffffffffffffffffff021916905582600073ffffffffffffffffffffffffffffffffffffffff168373ffffffffffffffffffffffffffffffffffffffff167fddf252ad1be2c89b69c2b068fc378daa952ba7f163c4a11628f55a4df523b3ef60405160405180910390a4505050565b6000806104496105a1565b9050806005015481600601540361048c576040517fbd239bf600000000000000000000000000000000000000000000000000000000815260040160405180910390fd5b80600401546104996106b1565b10156104d1576040517ff2ffecad00000000000000000000000000000000000000000000000000000000815260040160405180910390fd5b6000600182600601546104e49190610cfa565b9050600182600601600082825401925050819055508092505050919050565b61050e8383836106b9565b61051b600084848461091e565b610551576040517fbcb5663700000000000000000000000000000000000000000000000000000000815260040160405180910390fd5b505050565b6000806105616105a1565b905080600c01600084815260200190815260200160002060009054906101000a900473ffffffffffffffffffffffffffffffffffffffff16915050919050565b600090565b60006105b182610556565b905060006105bd6105a1565b90508381600a01600085815260200190815260200160002060008473ffffffffffffffffffffffffffffffffffffffff1673ffffffffffffffffffffffffffffffffffffffff16815260200190815260200160002060006101000a81548173ffffffffffffffffffffffffffffffffffffffff021916908373ffffffffffffffffffffffffffffffffffffffff160217905550828473ffffffffffffffffffffffffffffffffffffffff168373ffffffffffffffffffffffffffffffffffffffff167f8c5be1e5ebec7d5bd14f71427d1e84f3dd0314c0f7b2291e5b200ac8c7c3b92560405160405180910390a450505050565b600034905090565b600073ffffffffffffffffffffffffffffffffffffffff168373ffffffffffffffffffffffffffffffffffffffff160361071f576040517f25bd6bd300000000000000000000000000000000000000000000000000000000815260040160405180910390fd5b61072882610a9c565b1561075f576040517fc5a8d37100000000000000000000000000000000000000000000000000000000815260040160405180910390fd5b60008203610799576040517f12c33ce300000000000000000000000000000000000000000000000000000000815260040160405180910390fd5b60006107a36105a1565b905060018160090160008673ffffffffffffffffffffffffffffffffffffffff1673ffffffffffffffffffffffffffffffffffffffff16815260200190815260200160002060008282546107f79190610cfa565b925050819055508381600c01600085815260200190815260200160002060006101000a81548173ffffffffffffffffffffffffffffffffffffffff021916908373ffffffffffffffffffffffffffffffffffffffff160217905550828473ffffffffffffffffffffffffffffffffffffffff16600073ffffffffffffffffffffffffffffffffffffffff167fddf252ad1be2c89b69c2b068fc378daa952ba7f163c4a11628f55a4df523b3ef60405160405180910390a4828473ffffffffffffffffffffffffffffffffffffffff16600073ffffffffffffffffffffffffffffffffffffffff167f04444026cefd1b05506559cab59d1b865ae3ba4ed2fe5c894f04e522776c552d600080604051610910929190610d73565b60405180910390a450505050565b600061093f8473ffffffffffffffffffffffffffffffffffffffff16610b17565b15610a8f578373ffffffffffffffffffffffffffffffffffffffff1663150b7a02610968610269565b8786866040518563ffffffff1660e01b815260040161098a9493929190610e4a565b6020604051808303816000875af19250505080156109c657506040513d601f19601f820116820180604052508101906109c39190610eee565b60015b610a3f573d80600081146109f6576040519150601f19603f3d011682016040523d82523d6000602084013e6109fb565b606091505b506000815103610a37576040517fbcb5663700000000000000000000000000000000000000000000000000000000815260040160405180910390fd5b805181602001fd5b63150b7a0260e01b7bffffffffffffffffffffffffffffffffffffffffffffffffffffffff1916817bffffffffffffffffffffffffffffffffffffffffffffffffffffffff191614915050610a94565b600190505b949350505050565b600080610aa76105a1565b9050600073ffffffffffffffffffffffffffffffffffffffff1681600c01600085815260200190815260200160002060009054906101000a900473ffffffffffffffffffffffffffffffffffffffff1673ffffffffffffffffffffffffffffffffffffffff161415915050919050565b6000808273ffffffffffffffffffffffffffffffffffffffff163b119050919050565b5080546000825560020290600052602060002090810190610b5b9190610b5e565b50565b5b80821115610ba0576000808201600090556001820160006101000a81549073ffffffffffffffffffffffffffffffffffffffff021916905550600201610b5f565b5090565b600080fd5b6000819050919050565b610bbc81610ba9565b8114610bc757600080fd5b50565b600081359050610bd981610bb3565b92915050565b600060208284031215610bf557610bf4610ba4565b5b6000610c0384828501610bca565b91505092915050565b600073ffffffffffffffffffffffffffffffffffffffff82169050919050565b6000610c3782610c0c565b9050919050565b610c4781610c2c565b8114610c5257600080fd5b50565b600081359050610c6481610c3e565b92915050565b600060208284031215610c8057610c7f610ba4565b5b6000610c8e84828501610c55565b91505092915050565b7f4e487b7100000000000000000000000000000000000000000000000000000000600052601160045260246000fd5b6000610cd182610ba9565b9150610cdc83610ba9565b9250828203905081811115610cf457610cf3610c97565b5b92915050565b6000610d0582610ba9565b9150610d1083610ba9565b9250828201905080821115610d2857610d27610c97565b5b92915050565b6000819050919050565b6000819050919050565b6000610d5d610d58610d5384610d2e565b610d38565b610ba9565b9050919050565b610d6d81610d42565b82525050565b6000604082019050610d886000830185610d64565b610d956020830184610d64565b9392505050565b610da581610c2c565b82525050565b610db481610ba9565b82525050565b600081519050919050565b600082825260208201905092915050565b60005b83811015610df4578082015181840152602081019050610dd9565b60008484015250505050565b6000601f19601f8301169050919050565b6000610e1c82610dba565b610e268185610dc5565b9350610e36818560208601610dd6565b610e3f81610e00565b840191505092915050565b6000608082019050610e5f6000830187610d9c565b610e6c6020830186610d9c565b610e796040830185610dab565b8181036060830152610e8b8184610e11565b905095945050505050565b60007fffffffff0000000000000000000000000000000000000000000000000000000082169050919050565b610ecb81610e96565b8114610ed657600080fd5b50565b600081519050610ee881610ec2565b92915050565b600060208284031215610f0457610f03610ba4565b5b6000610f1284828501610ed9565b9150509291505056fea264697066735822122071b351b9df14bec5d923d30d1fc0bee7c5819aa78bbfa324de73c435226006ae64736f6c63430008100033",
  "linkReferences": {},
  "deployedLinkReferences": {}
}